:100000000000022001F0010045F0010047F001006E
:1000100049F001004BF001004DF00100000000002C
:10002000000000000000000000000000610B030061
:1000300051F0010000000000810B030021210300AA
:10004000D14B020057F00100F94D0200C534020007
:1000500057F0010057F00100692E020057F001002F
:10006000753C020057F0010057F00100F532020024
:1000700057F0010057F0010057F0010057F0010060
:10008000E14B0200810C030057F0010057F0010022
:1000900057F0010057F0010057F0010057F0010040
:1000A00057F0010057F0010057F00100CD3C02006D
:1000B00057F0010057F001000000000000000000B0
:1000C00057F0010057F0010057F001003D340200E5
:1000D00057F0010057F0010057F00100C95D020020
:1000E00057F00100000000000000000000000000C8
:1000F0000000000057F0010000000000A5330200DE
:1001000000000000000000000000000000000000EF
:1001100000000000000000000000000000000000DF
:1001200000000000000000000000000000000000CF
:1001300000000000000000000000000000000000BF
:1001400000000000000000000000000000000000AF
:10015000000000000000000000000000000000009F
:10016000000000000000000000000000000000008F
:10017000000000000000000000000000000000007F
:10018000000000000000000000000000000000006F
:10019000000000000000000000000000000000005F
:1001A000000000000000000000000000000000004F
:1001B000000000000000000000000000000000003F
:1001C000000000000000000000000000000000002F
:1001D000000000000000000000000000000000001F
:1001E000000000000000000000000000000000000F
:1001F00000000000000000000000000000000000FF
:020000021000EC
:10E00000EFBEADDE000000000000000000000000D8
:10E010000000000000000000000000000000000000
:10E0200000000000000000000000000000000000F0
:10E0300000000000000000000000000000000000E0
:10E0400000000000000000000000000000000000D0
:10F0000000F02AB80A484FF00701884385460948AE
:10F0100080470948094901600948016841F47001C5
:10F020000160BFF34F8FBFF36F8F00F017B8000080
:10F0300000000220096E020008ED00E00000000060
:10F0400088ED00E0FEE7FEE7FEE7FEE7FEE7FEE70D
:10F05000FEE7FEE7FEE7FEE7FFF7D4BF3749384893
:10F060000A1A02D0072291438D46364936480A1AB9
:10F0700006D00722914381F30988022282F3148883
:10F0800032483349334A00F03AF833483349344A76
:10F0900000F035F833483449344A00F030F8344849
:10F0A0003449354A00F02BF834483549354A00F0E8
:10F0B00026F835483549364A00F021F835483649B2
:10F0C000364A00F01CF836483649002200F02FF886
:10F0D00035483649002200F02AF826482649884259
:10F0E00005D00268043003B4904703BCF7E7002062
:10F0F0008646EC46002000212D4A9047FEE78842D4
:10F1000014D0521A12D003460B4313430324234254
:10F1100006D1036804300B600431043AF9D170471A
:10F12000037801300B700131013AF9D17047884200
:10F1300002D002700130FAE77047000000000220A0
:10F1400000F8012000000220000002206CD106001F
:10F1500038010020D0060020B4F10100B4F1010014
:10F160005C1606006CD10600380100203801002032
:10F170002419060024190600241906002419060083
:10F180002419060024190600241906002419060073
:10F190006CD1060004D70600D0060020D00600205F
:10F1A000D006002068AD012068AD012070AD0120BF
:04F1B000C1F10100A8
:10F1B4000048704760AD0120FEE7000008B512F07A
:10F1C400B7FA13F0F9FB11F02DFE12F0F3FA12F076
:10F1D400FFFA40B913F030FD13F0A4FC13F040FC27
:10F1E40011F0D4FFFEE70421012012F083FBF1E7C4
:10F1F40030BF7047064B1A5C1F2A86BF054902F0D0
:10F204001F024FF0A04101239340C1F80C35704711
:10F214004C19060000030050064B1A5C1F2A86BFD7
:10F22400054902F01F024FF0A04101239340C1F8A9
:10F23400083570474C190600000300504FF0A043F6
:10F2440010B4202010244FF480014FF48042C3F8FE
:10F254000845C3F808055DF8044BC3F80815C3F85E
:10F26400082570470A4B185C1F288ABF09494FF0CC
:10F27400A04100F01F00D1F804350122824022EAA7
:10F2840003001340C1F80805C1F80C35704700BFEE
:10F294004C19060000030050C10707D4830742BF7E
:10F2A4004FF0A0430C22C3F8082770474FF0A04347
:10F2B4000322102110B4C3F810272024C3F8142704
:10F2C400C3F85827C3F83827C3F808154FF4804209
:10F2D4004FF48001C3F80845C3F80815C3F808259E
:10F2E400820704D54FF0A0430C22C3F808275DF829
:10F2F400044B704759B142B1531E1A4005D1826084
:10F3040001608380C26010467047092070470E2058
:10F31400704700BF10B48468C26803468088121B1B
:10F32400904203D204205DF8044B7047DC681A68ED
:10F3340020401154DA685DF8044B01320020DA6091
:10F34400704700BF03468068DA6890420DD010B45D
:10F354009A889C68186822405DF8044B825C0A70A5
:10F364009A68013200209A6070470520704700BFF8
:10F3740003460020DA689A60704700BF30B504780D
:10F38400012C83B027D0022C0FD064B939493A48F4
:10F39400FFF7D8FF002849D0384B03221B688DF8AB
:10F3A40000206846984703B030BD354B354D1A7878
:10F3B400C168AA5C01918DF800403349002A30D11C
:10F3C400012203F10C0004F05FFF2C4B68461B681C
:10F3D400984703B030BD037AC3B143682B4D197805
:10F3E4002846FFF797FF002832D0244B01901B6872
:10F3F4008DF8004068469847A968EB68AA885B1AAC
:10F404009A4203D2224B01221A70CCE71C4B1D4AAC
:10F414001B781D49D35CB3B101221E4805F08CFA58
:10F42400C1E70122181D05F087FACEE71448154AF2
:10F4340003781049D35C0122ABB1043003B0BDE8BA
:10F44400304005F01BBA0122134804F01DFFAAE75F
:10F45400AA68EB689A42CFD0084B8DF800001B686D
:10F4640068469847C8E70C3003B0BDE8304004F064
:10F47400A1BE00BFF8060020D0060020FC06002034
:10F484003801002070080020F4060020E006002067
:10F49400F00600203C010020440100202DE9F04149
:10F4A4002F4E88B03260002951D08A8804460E4617
:10F4B4002C4809681D46FFF71DFF10B108B0BDE8D0
:10F4C400F081B289B1682848FFF714FF0028F5D10C
:10F4D40094F810E0637C254E254FBEF1000E18BF52
:10F4E4004FF0010E002B0FCEEC46ACE80F00636822
:10F4F400009323680193E3680293A368039396E857
:10F504000F0008BF4FF000088CE80F0018BF4FF041
:10F514000E086369174A0693694638468DF814E065
:10F524008DF81C508DF8158003F090FA0028C5D191
:10F534002368114A01331070C0D0104A3B78104937
:10F54400D35C01223BB1381D05F0F6F9B6E707207C
:10F5540008B0BDE8F08107F10C0004F095FEADE7BA
:10F56400FC060020E0060020D0060020501906000A
:10F574003801002081F30100F0060020700800200B
:10F58400F406002008B50548FFF7F2FE00B108BDF7
:10F59400BDE808400248FFF7EBBE00BFE0060020CC
:10F5A400D006002070B5104D014610482E78FFF7A4
:10F5B400C9FE04460EB9204670BD0D480D490378B6
:10F5C400CB5C0D4900222A70012243B1043005F0BE
:10F5D400B3F90028EFD000F071F8204670BD0C306C
:10F5E40004F052FEF5E700BFF0060020E00600201C
:10F5F4003801002070080020F406002070B5014690
:10F604001548FFF787FE044608B1204670BD134D28
:10F61400134E2B78F35CA3B1281D05F07FF9002865
:10F62400F3D110490C48FFF78DFE0028EDD12B785B
:10F634000C49F35C53B1BDE870400B48012205F05E
:10F644001DB905F10C0004F013FEE8E7BDE87040B5
:10F654000648012204F0AEBDD00600203801002087
:10F6640070080020F80600203C010020440100201E
:10F6740008B50748074A0378D35C23B1043005F082
:10F684004BF8002008BD0C3004F014FD002008BD28
:10F69400380100207008002072B6024A1368013352
:10F6A4001360704700070020034A1368013B13608E
:10F6B40003B962B6704700BF0007002000B585B0EB
:10F6C4000346002101AA44F20100CDE9011103938C
:10F6D40000F004F805B05DF804FB00BF72B6094BF6
:10F6E400D3F8F030DB0700D500BEBFF34F8F0549D8
:10F6F400054BCA6802F4E0621343CB60BFF34F8F3B
:10F7040000BFFDE700ED00E00400FA050346002217
:10F7140053E8000F00EA020143E8001C9CF0000FCC
:10F72400F6D1704758B10B4661B110B511469A68CD
:10F7340043600446904708B9044B236010BD48F267
:10F744000150704748F21050704700BF6341455361
:10F75400B8B103680C4A934210B5044606D16368F5
:10F764002046DB6898470023236010BD02F17F62C6
:10F7740002F5402202F57C729342F0D048F2025026
:10F7840010BD48F2015070476341455368B130B42D
:10F79400094C0568A54204D151B1436830BC1B69CA
:10F7A400184748F2025030BC704748F20150704785
:10F7B40048F21050F7E700BF6341455338B3F0B542
:10F7C400DFF860C00768674583B0044617D109B302
:10F7D400CBB1089DBDB1009545682D6AA84748B9CD
:10F7E4002368BB4208D163682046DB689847A0B908
:10F7F4000B4B236003B0F0BD094A9342F3D048F2A7
:10F80400025003B0F0BD48F2135003B0F0BD48F20B
:10F814000150704748F21050ECE700232360E9E7F9
:10F824005345416363414553F0B50C4685B0002907
:10F8340046D0054611461E46002846D0A3684460BB
:10F844009847044658BB3A4F2F60002E38D06B6857
:10F8540031461B6928469847044600BB2B68BB42C7
:10F8640020D127466B685B695BB10A9A002A55D0A0
:10F8740011462846984748F203539842044600D05C
:10F8840048B90E9B00930B99DDE90C232846FFF73A
:10F8940095FF044648B917B1384611F053FC204689
:10F8A40005B0F0BD48F20254F9E72B68204A9342B0
:10F8B4002BD16B682846DB68984700232B60EAE766
:10F8C40048F21054204605B0F0BD6068039211F070
:10F8D40037FC0399074620B3A3684460984704465D
:10F8E4000028D9D1124D3D6048F21054002ED3D0D7
:10F8F4007B6831461B693846984704460028CBD1BB
:10F904003B68AB4210D13D46ACE702F17F6202F5A1
:10F91400402202F57C729342BDD1CAE748F21054EA
:10F92400B9E748F21554BAE748F20254B4E700BF05
:10F93400634145532DE9F0430446406800788BB099
:10F944000F461546984608287BD8DFE800F026269F
:10F954004F59353505054A0052B304F1090900260B
:10F964001C3401E0B54223D9BB19CDE9003810227B
:10F974004B460121204608F05BFD10360028F1D0EB
:10F9840010F5C14F5AD04BDC10F5C34F50D010F5D1
:10F99400C24F4AD048F216500BE0217A04F1090311
:10F9A400CDE9007804F11C0008F042FD0028E7D1FD
:10F9B40000200BB0BDE8F08312F00F0635D1002A09
:10F9C400F6D004F10C0901E0B542F1D908EB0603C5
:10F9D400BA19217A484608F021FD10360028F3D0E0
:10F9E400CEE704F10C000CF0C1FFDFE7217A04F14B
:10F9F4000903CDE9007804F11C0009F05FF9D5E7AB
:10FA040006ABCDE900310026CDF8088004F10903E6
:10FA140005AA294604F11C00059609F001FAC5E778
:10FA240010F5A24F07D02230B4D148F21150C0E7EC
:10FA340048F21550BDE748F21750BAE748F20350B0
:10FA4400B7E748F20250B4E708B542681378082BC8
:10FA540028D8DFE803F02A2A0505383805053F00D1
:10FA640052881C3007F0FEFB10F5A24F28D00FDCA3
:10FA740010F5C24F33D010F5C14F13D010F5C34F5A
:10FA840048F2165348F2155214BF1846104608BDE2
:10FA940010F1220F23D0002848F2165314BF184641
:10FAA400002008BD48F2035008BD037A5288012B98
:10FAB40000F11C00D6D007F067FF10F5A24FD6D195
:10FAC40048F2175008BD037A5288012B00F10C004C
:10FAD400F1D1C7E752880C300CF022FFC4E748F29A
:10FAE400115008BD08B543681B78082B13D8DFE80C
:10FAF40003F0050505050A0A05050E001C3007F08C
:10FB04008BFB002008BD0C3007F086FBF9E70C30B6
:10FB14000CF05EFAF5E748F2035008BD42685388DA
:10FB240070B5044623F0400080280D4605D0B3F597
:10FB3400807F02D048F2185070BD1378082B26D865
:10FB4400DFE803F005050505191922221400012D2B
:10FB54000ED80023A360E3602361636104F11C00F9
:10FB6400237607F053FB0020257270BD022D12D0BE
:10FB740048F2175070BD012DFAD80023237204F106
:10FB84000C0007F043FBEEE7022DF1D1E1E748F268
:10FB940003502572E9E704F10C0630460CF014FA20
:10FBA40063685B88C02B1CD0B3F5807F1FD0802B8B
:10FBB40019D128460CF0DAF90146F8B130460CF0B8
:10FBC4001FFA0028CFD010F5C14FE0D011DC10F59A
:10FBD400C34F17D010F5C24F10D148F211502572FF
:10FBE400C3E70320E6E748F202502572BDE704208C
:10FBF400E0E710F5A24F09D02230EED048F21650BB
:10FC04002572B2E748F215502572AEE748F2175054
:10FC14002572AAE770B5049D1E462B680F2B18D9D0
:10FC240000F10C0420460CF0A1FE48B110F5C14FC0
:10FC340023D011DD10F5A24F14D148F2175070BD36
:10FC4400314620460CF084FF0028EFD110232B60AE
:10FC540070BD48F2145070BD10F5C34F07D148F27F
:10FC6400155070BD223005D048F2165070BD10F505
:10FC7400C24FF9D148F2115070BD48F2035070BD23
:10FC84002DE9F0478AB01F46DDF84890D9F80030D6
:10FC9400934214D3436812F00F081B7814460546A8
:10FCA4000E4602D09A1E012A2FD8082B00F28D800E
:10FCB400DFE803F03030596442420A0A730048F224
:10FCC40014500AB0BDE8F08784B305F1090A4FF077
:10FCD40000081C3501E0444528D906EB0803CDE9AA
:10FCE4000037102253460121284608F0A1FB08F1F1
:10FCF40010080028EFD010F5C14F63D054DC10F584
:10FD0400C34F57D010F5C24F59D148F211500AB021
:10FD1400BDE8F087CDE9006705F10903297A224699
:10FD240005F11C0008F084FB0028E4D10020C9F888
:10FD340000400AB0BDE8F087B8F1000FE5D1002C0F
:10FD4400F4D005F10C0A01E04445EFD907EB0803B0
:10FD540006EB0802297A504608F060FB08F1100807
:10FD64000028F1D0C7E7CDE9006705F10903297A36
:10FD7400224605F11C0008F0A1FFD5E706AB0021DF
:10FD8400CDE900360591029705F1090305AA05F1AD
:10FD94001C00214609F044F8C6E72246314605F125
:10FDA4000C000CF0E3FDBFE710F5A24F05D148F2BB
:10FDB400175086E748F2155083E72230A5D048F261
:10FDC40016507EE748F203507BE748F2025078E78A
:10FDD40008B543681B7808301BB90BF05BFC0020A6
:10FDE40008BD0EF041F9002008BD00BF10B586B073
:10FDF4009DF83840A4F1040EBEF10C0F2FD814F076
:10FE0400010F2CD1A3F1070CBCF1060F3BD801293B
:10FE140045D000293FD10D9904910C9903910A9979
:10FE24000291099901910899009105940B99083060
:10FE34000BF056FC00282ADC10F1140F13DA10F52D
:10FE4400C24F44D010F5C14F3ED010F5C34F48F215
:10FE5400165348F2155214BF1846104601E048F2F2
:10FE6400625006B010BD1430142810D8DFE800F03A
:10FE7400130F270F0F270F130F0F0F0F0F0F0F0F56
:10FE84000F0F0F0F2A0048F2615006B010BD48F260
:10FE9400165006B010BD48F2175006B010BD0D99AB
:10FEA40004910C9903910A99029109990191089975
:10FEB400009105940B9908300BF0F8FBBAE748F26F
:10FEC4006050CEE70020CCE748F20350C9E748F27F
:10FED4001150C6E743685A8870B50D4622F04001B8
:10FEE4008029044602D0B2F5807F34D11B781BB33D
:10FEF400032B02D048F2035070BD04F108063046CB
:10FF04000DF0C8FE636802215B882A4630460DF076
:10FF1400C7FE0028F0D010F5C14FEBD01EDC10F561
:10FF2400C34F26D010F5C24F48F2165248F211536F
:10FF340014BF1046184670BD04F1080630460BF095
:10FF440081FB636802215B882A4630460BF07EFB06
:10FF54000028D1D0DFE748F2185070BD14300728CC
:10FF64000AD8072808D8DFE800F00A070D07070DAC
:10FF7400070A48F2155070BD48F2165070BD48F299
:10FF8400175070BD48F2605070BD00BF0B4669B198
:10FF940011465AB110B5044658B1074A02605A686E
:10FFA4004360904708B10023236010BD48F210500D
:10FFB400704748F2015010BD4145414470B1094BAE
:10FFC40002689A4210B5044605D143689B68984775
:10FFD4000023236010BD48F2025010BD48F20150C6
:10FFE400704700BF414541442DE9F047DDE9085918
:0CFFF400DDE90A6EDDE90CC49DF83880E0
:020000022000DC
:10000000002831D01D4F8A460168B94214D1BAB1D7
:10001000E4B105B326B3BCF1000F29D0CDE90BEC58
:10002000CDE90D48CDE9099608954468E468514644
:10003000A446BDE8F047604748F20250BDE8F087AB
:10004000002BE5D048F21050BDE8F087B8F1000F62
:10005000F8D1002DDED1B9F1000FF3D1002EDAD1A5
:10006000BEF1000FDAD0EDE748F20150BDE8F087AD
:10007000BEF1000FD2D048F21350DFE741454144B2
:100080000378052B02D0094B1B681847084BD3F89F
:100090008424D3F88034DBB2002BF4D1054BD2B2E8
:1000A000052A08BF1846014B1B68184704070020A3
:1000B00000700240F0190600014B02481B68184707
:1000C00004070020C819060001280AD0022804D01D
:1000D00058B9064B06481B681847044B05481B686F
:1000E0001847024B04481B68184770470407002054
:1000F000E8190600E0190600E41906002DE9F04FA2
:1001000089B0002504460E4601929846049500E009
:10011000013562680123D2F804902146002204A828
:10012000C8470028F4D18DF80E00069085B38146AB
:1001300082460BE09DF80E306768023BD7F804B0AA
:10014000D8479DF80E309A44554521D9626801235D
:10015000D2F804B021460DF10E0206A8D847616816
:100160000123D1F804B00DF10F02214606A8D847AB
:100170009DF80F30B3424FF00002214606A8D9D1B6
:10018000019B4B4508D009F101095FFA89F9D1E7D4
:10019000052009B0BDE8F08F129A9DF80E3013606B
:1001A00088F8003088F801606268023B556808F101
:1001B0000202A847002009B0BDE8F08FF0B505465F
:1001C00083B0324805F068FE044610B1204603B003
:1001D000F0BD2F492F4A304B08701060214648224D
:1001E0002E481C601BF0A0FD2D48482221461BF024
:1001F0009BFD002D44D095E807002A4B83E80700BB
:10020000002837D0002002F0CDFB08B1852834D17A
:10021000254D6A682B7A146803B305F1090C4FF079
:10022000030E1F4E1D4F1EFB03CE9CF8010088B12C
:100230009CF8022010446044624412F8011B01F053
:100240000F03DB0009064CBFDB199B198242C3E98F
:100250000054F2D10CF1030CF445E6D10B23124803
:100260008DF8043001A9A04704460028AED005F05F
:10027000A9FEABE70D4A1A60C4E7FFF721FAC7E70A
:10028000084B0A4A1D72C3E90025BBE78100020042
:100290001107002018070020140700206407002021
:1002A0001C07002004070020081A0600E1060200CF
:1002B00008B506F01DF940B106F022F928B9054845
:1002C00002F084FB18B9002008BD082008BDFFF724
:1002D000F7F9F8E7EC19060005F07EBE05F0FEBE62
:1002E0004FF0804303E0D3F83824D10707D5D3F883
:1002F00038249207F7D5024B02481B68184770470D
:1003000004070020DC19060000B5054B83B08222EB
:100310001B688DF8042001A8984703B05DF804FB22
:1003200004070020F0B5047A83B0002C52D000F10D
:10033000090E04EB4404294E294F744471464D784C
:100340000022AA4201EB020314D091F802C013F874
:100350000CC00CF00F031CF0800F4FEAC30307D151
:1003600033441B680132002BEBD0112003B0F0BDE9
:100370003B44F6E703318C42E1D14368174F1D68D7
:10038000DFF85CC09EF801608EB19EF80220164432
:100390007644724412F8011B01F00F03DB000906DA
:1003A0004CBF6344DB199642C3E90005F2D10EF15C
:1003B000030E7445E6D10B4A13681BB11A68136823
:1003C000002BFBD10B23106001A98DF80430A84746
:1003D00003B0F0BD43681D68EDE700BF1C070020B7
:1003E0006407002018070020024B1878003818BF57
:1003F0000120704710070020030710B5044604D5FC
:100400002046BDE8104006F0CBB906F04BFC204674
:1004100006F0EEFB2046BDE8104006F0C1B900BF73
:1004200006F02ABA014B1868704700BF1807002071
:100430000D4B10B58646186878B1047A74B103463E
:10044000002202E00132A24208D093F809C0F4452C
:1004500003F10303F6D101B10A7010BD03681868F7
:100460000028EAD110BD00BF1807002043681146DC
:100470001B68184700F00F03082B0AD802064CBF70
:10048000054A064ADB001344186810B143681B682C
:1004900018471020704700BF640700201C07002089
:1004A00038B5094B1C6864B1054602E023681C6836
:1004B0003CB1636829461B68204698470628F5D05A
:1004C00038BD062038BD00BF1807002038B50446E7
:1004D0000D4606F055F918B1054B1B78022B01D0DB
:1004E000082038BD29462046BDE8384006F088BAC5
:1004F0001107002038B504460D4606F041F918B141
:10050000054B1B78022B01D0082038BD2946204618
:10051000BDE8384006F00CBB11070020F8B5436871
:100520009B6805460E4614461BB19847062800D026
:10053000F8BD34BB2B7AB34228D9093506EB460106
:100540000D446B78DBB11F4605E0013406F028F955
:10055000A74214D06B78E2B2934214D9AB782A192F
:10056000D65C33073046F0D406F09CFB304606F0EC
:100570003FFB0134304606F013F9BC42EAD10020BB
:10058000F8BD0720F8BD00231B78FFDE6378FFDE8F
:1005900043681B6903B11847184670472C4B2DE977
:1005A000F047D3F80090B9F1000F48D099F808A0AF
:1005B000BAF1000F3CD009F10906002704E0013729
:1005C000574506F1030633D0D9F804309B68FCB2D6
:1005D0002BB100222146484698470628EFD199F8CA
:1005E0000830A3422DD97378002BE8D09846002418
:1005F00005E0013406F0D4F8A045E0D07378E2B20B
:100600009A4221D2B3783219D55C2B072846F0D410
:1006100006F048FB284606F0EBFA0134284606F0BF
:10062000BFF8A045EAD10137574506F10306CBD103
:10063000D9F80030D3F80090B9F1000FB6D1BDE879
:10064000F08700235B78FFDE00231B78FFDE00BF0E
:10065000180700202DE9F843204BD3F80080B8F1AB
:10066000000F35D098F80890B9F1000F29D008F1A3
:1006700009050027D8F80430DB68FCB213B1214625
:100680004046984798F80830A34223D96B789BB12D
:100690000024E2B293421E460BD92A19AB780134EA
:1006A000D05C06F0E9F8A64206D06B78E2B293423D
:1006B000F3D800231B78FFDE01374F4505F1030512
:1006C000D8D1D8F80030D3F80080B8F1000FC9D1E4
:1006D000BDE8F88300235B78FFDE00BF1807002029
:1006E000037870B50446852B00F2BD80DFE813F077
:1006F0004F02A201BC00CD01F401DF00E600BB0007
:10070000FE0011012401BB00BB00BB00BB00370190
:10071000BB00BB00BB00BB00BB00BB00BB00BB0001
:10072000BB00BB00BB00BB00BB00BB00BB00BB00F1
:10073000BB00BB00BB00BB00BB00BB00BB00BB00E1
:10074000BB00BB00BB00BB00BB00BB00BB00BB00D1
:10075000BB00BB00BB00BB00BB00BB00BB00BB00C1
:10076000BB00BB00BB00BB00BB00BB00BB00BB00B1
:10077000BB00BB00BB00BB00BB00BB00BB00BB00A1
:10078000BB00BB00BB00BB00BB00BB00BB00BB0091
:10079000BB00BB00BB00BB00BB00BB00BB00BB0081
:1007A000BB00BB00BB00BB00BB00BB00BB00BB0071
:1007B000BB00BB00BB00BB00BB00BB00BB00BB0061
:1007C000BB00BB00BB00BB00BB00BB00BB00BB0051
:1007D000BB00BB00BB00BB00BB00BB00BB00BB0041
:1007E000BB00BB00BB00BB00BB00BB00BB00BB0031
:1007F0004B0186005A0133021C02DF00854B8649FB
:10080000D3E900029047854B1C684CB1824D636868
:1008100020461B682946984723681C68002CF6D19F
:100820007F4C63680BB10D209847FFF713FF00F072
:10083000DFFA7C4B1B68002B00F0CB8101207A4D46
:1008400005F048FD2B78022B02D0053B032B08D87E
:1008500002F082F82B78022B01D0082B01D105F091
:1008600065FF01232B7070BD6F4D2B78022B02D0DA
:10087000053B032B08D802F06FF82B78022B01D030
:10088000082B01D105F052FF654B5B6803222A70EB
:100890000BB102209847614B1D6845B16B68284633
:1008A0001B68214698472B681D68002DF6D1594BCF
:1008B0002146D3E90002BDE8704010478278110656
:1008C00002F00F034CBF594A524ADB001344D3E9EC
:1008D0000002214690470028C5D0A0780207C2D068
:1008E0000307C0D4BDE8704006F076B94C4B5B6896
:1008F0000BB108209847494B1D68002DB3D06B6899
:1009000028461B68214698472B681D68002DF6D1A4
:10091000A9E7434B5B680BB1092098473F4B1D6823
:10092000002DA0D06B6828461B68214698472B688D
:100930001D68002DF6D196E7394B5B680BB10A2094
:100940009847364B1D68002D8DD06B6828461B6874
:10095000214698472B681D68002DF6D183E7304B60
:100960005B680BB10F2098472C4B1D68002D3FF49E
:100970007AAF6B6828461B68214698472B681D682C
:10098000002DF6D16FE7284C2378062B00F0238149
:1009900003F0FD03052B7FF466AF05F0D1FE0223C3
:1009A000237070BD204DFFF755FE05F0BBFC2B7882
:1009B000022B02D0053B032B08D801F0CDFF2B788A
:1009C000022B01D0082B01D105F0B0FE134A1468A8
:1009D00000232B704CB1164E636820461B683146CD
:1009E000984723681C68002CF6D10A4B1049D3E9BC
:1009F000000290470A4B5B680BB10E2098472B789A
:100A0000022B03D0053B032B3FF62DAFBDE8704012
:100A100001F0A2BF1C070020D8190600180700200B
:100A2000040700201407002011070020640700209D
:100A3000D41906008C4DFFF70DFE00F0CFF92B788E
:100A4000022B07D05A1F032A00F2E480082B01D0A2
:100A500005F076FE854B5B6802222A700BB10120FF
:100A60009847834B2146D3E900029047814B1D688C
:100A7000002D3FF4F8AE6B6828461B682146984766
:100A80002B681D68002DF6D1EDE6774D2B78082BED
:100A900000F09780022B00F0CE80053B022B00F285
:100AA000C18005232B70714B5B680BB10320984705
:100AB0006F4B2146D3E9000290476E4B1D68002D15
:100AC0003FF4D1AE6B6828461B68214698472B68D7
:100AD0001D68002DF6D170BD644B5B680BB103201F
:100AE0009847634B6449D3E900029047614B1C6807
:100AF0004CB1614D636820461B68294698472368BE
:100B00001C68002CF6D1584D2B78062B5ED0082B94
:100B100007D0022B05D0053B032B00F28F8005F098
:100B20000FFE02232B7070BD4F4D2B78032B5BD033
:100B300005F0DCFD00283FF496AE2B78022B00F088
:100B40008F805A1F032A00F28480082B00F08880CF
:100B500006232B7070BD444D2B78032B7FF483AE9E
:100B600005F0D8FC00283FF47EAE2B78022B02D093
:100B7000053B032B08D801F0EFFE2B78022B01D0A8
:100B8000082B01D105F0D2FD04232B7070BD364B2C
:100B90001B78032B24D0082B22D0344B5B680BB17D
:100BA00000209847354B1D68002D3FF45CAE6B6804
:100BB00028461B68214698472B685D68002DF6D1B2
:100BC00070BD02232B7005F0C5FD6CE707232B7069
:100BD00070BD207A33E605F0B3FD0823237070BDA5
:100BE0002748FFF77DFDD8E705F094FC00289FD04B
:100BF0002B78022B02D0053B032B08D801F0ACFE6A
:100C00002B78022B01D0082B01D105F08FFD042396
:100C10002B708DE71B4801F069FE2B78022B7FF4C7
:100C200015AF17E7174801F061FE2B78022B02D0B1
:100C3000082B7FF436AF05F079FD32E7114801F05B
:100C400055FE2B78022B3FF46CAF082B3FF469AFB5
:100C500065E70C4801F04AFE2B78022B7FF475AF54
:100C600005F064FD74E700BF1107002004070020B1
:100C70001C07002018070020CC19060014070020CC
:100C8000D01906004C010020002070472DE9F04FDC
:100C90004B6887B00C4602901546002B00F08C8004
:100CA00005F096FFE368AB4228BF2B4681461E46FF
:100CB000002B00F08F804FF0000B5F464FF0010AD1
:100CC000D84601900395D4E90115B542A94628BF3D
:100CD000B1463846A6EB09064F44F1B1019B4A469E
:100CE00018441AF0EFFFA268E168C4F80480A2EB90
:100CF0000902A1EB0903A260E3602AB3002B08BF3D
:100D00004FF0000A002EDED1DDF80490029B504621
:100D1000C3E9009707B0BDE8F08FA5B1019B1A1891
:100D200020464B4650F8101B4D686D68A847A268D6
:100D3000E168A2EB0902A1EB0903A260E360EAB15A
:100D40004FF0010BDAE7E368BBF1000F16D1002B7F
:100D500028D02168D9B1CDF8108003E0A3682168BC
:100D60000133A3604A680123556804A80022A847FC
:100D70000028F3D12061002EA5D1C5E722681268B2
:100D80001168216093B14FF0010B0029E3D1DDF828
:100D90000490039D6160002FB8D0BD4288BF4FF022
:100DA000000AB3E7DA46002E8DD1ADE79A464FF040
:100DB000010B002E87D1A7E70B681B68D3F80090C2
:100DC000B9F1000F7FF46CAF8F68002F7FF468AF2C
:100DD000BA469BE71F464FF0010A97E708B5002087
:100DE000FFF70AFBBDE808408020FFF705BB00BF06
:100DF00008B50020FFF714FBBDE808408020FFF78E
:100E00000FBB00BF70B5C38893421E4628BF16466D
:100E1000934284B00D4612D8002400200394CDE9FB
:100E20000156FEF73BFC802001A9FFF74FFB04466B
:100E300088B10020FEF73AFC204604B070BD802047
:100E4000144605F08DFCB4FBF0F303FB1044B4FA38
:100E500084F46409E1E705F079FF80280BD1094AA1
:100E6000094B92E8030083E803000020FEF71EFC14
:100E7000204604B070BD0020FEF718FC1024204668
:100E800004B070BD001A0600D00700202DE9F04F15
:100E90000B780E2B87B000F285805BB3013B0D2BE6
:100EA00028D8DFE803F019142927364D27272727EC
:100EB00014076471AA4B1A784AB1AA4900240A7827
:100EC000A9481C7022F002020A70FFF709FC0025F5
:100ED000284607B0BDE8F08FA14B1A78032A09D045
:100EE000A04903240A78A0481C7022F002020A706C
:100EF000FFF7F6FB0625EBE79C48FEF709FC002808
:100F0000E5D09B4B0122DA65BFF36F8FBFF34F8FA4
:100F1000DDE705230DF101008DF80030954C05F05B
:100F2000D1FE9DF801300022226003F01F02032A47
:100F300000F21081DFE812F0E800BA0076006E00DF
:100F4000C87803280C46D5D08A4E33681BB30022DC
:100F50007168326098470546F0B93368002B00F09D
:100F6000FB80A378002BB2D105F0D2FEAFE74FF0A3
:100F700080427B4BD2F838141A78C9071BD5022A55
:100F8000A5D0784902249AE7754B1A78012A9ED099
:100F90007449012493E70E2505F0CEFE284607B0DC
:100FA000BDE8F08F852BA5D16D4B1A78032AA1D10E
:100FB0006C49042496E7012AEAD188E7062A00F062
:100FC0009281082A00F0778122BB66496A4D097830
:100FD0006A7011F0020FBDF8071018BF0323022931
:100FE0000E4628BF022602292B7000F2DB81CDE9D4
:100FF000035600200592FEF751FB802003A9FFF75E
:1010000065FA0546002800F048810020FEF74EFBF7
:10101000062DC1D16846FFF743FA0546002D00F0C2
:101020009180B9E79DF80500050707D06946FFF7ED
:1010300021FA06280546F1D19DF8013013F0600F22
:1010400040F088809DF80230454A9DF8055012789E
:10105000012B00F0A880032B00F09780002B79D1A2
:10106000052A02D0290740F08E80284605F0F8FDB9
:10107000BDF80730404D022B1E4628BF0226022B2A
:10108000288000F2668100230020CDE903560593F5
:10109000FEF704FB802003A9FFF718FA0546002895
:1010A00000F0FB800020FEF701FB75E79DF80500CE
:1010B00003A9FFF7BDF90746002862D09DF80C1080
:1010C0006A46FFF7D3F906280546A7D19DF80130F7
:1010D00013F0600F3ED1224A9DF80C1012789DF853
:1010E0000260DD0940F01D810B2E33D1052A4AD163
:1010F000BDF80330FF2B74D89DF803203846FFF766
:101100000DFA0546F5B147E713F0600682D1DB0919
:101110009DF802207FF452AF032A64D0092A53D0ED
:10112000012A7FF477AFBDF80330012B7FF472AF53
:10113000FFF75AF9002800F0F2800A4A137823F0EA
:101140000203137023683BB105F000FE00287FF412
:10115000BEAE09E706251FE705F0E4FDB7E600BFD0
:101160001D0800201C080020F419060018080020A3
:1011700000700240D0070020D80700202846FEF764
:1011800095FA102508E7082506E72B07E2D4BDF8F5
:101190000330002BDED12F07DCD0052AF3D12846FF
:1011A00005F01AFDCEE72E07D4D4BDF80330002B8E
:1011B000D0D12807CED0052AE5D1284605F072FD0A
:1011C000284605F015FDBDE7954D9DF803202B78C9
:1011D000043B012BD7D8002A00F0D380012A00F06D
:1011E000C4800725D8E6BDF80330012B7FF412AF89
:1011F000FFF7FAF8002800F092808A4A137843F04B
:10120000020313709EE7BDF80730002BA4D0092B12
:1012100028BF09239846FFF705F94FF0090905464D
:10122000B8B1B346CDF80CB0002700E001376A68CA
:101230000123D2F804A02946002203A8D0470028A1
:10124000F4D12A682B7A15683344B944DEB2002DF4
:10125000E8D1754D7549424628461AF033FD2E7186
:10126000A5F80290FFF7C0F818B1EB7943F020031E
:10127000EB71FFF7D7F86E4B1860BDF80720DA6006
:101280000020C3E90158FEF709FA6A498020FFF7F8
:1012900031F9054600287FF4B8AE05F057FD8028E7
:1012A0007FF46CAF644B93E8030084E803002846A6
:1012B000FEF7FCF946E75A4A1278052A03D0042AB9
:1012C0007FF4A8AE3346BDF80720574D012A1646D5
:1012D00028BF0126012A2B7070D80023CDE90356C0
:1012E0000020059387E69DF80430022B8BD0032B5A
:1012F00071D0012B7FF48EAEBDF80730002B3FF488
:101300002BAF4E4912220DF10100FFF77BFD054680
:10131000062D3FF47FAE002D3FF414AF3CE60F25C1
:101320003AE6002E6DD00A2E7FF414AF052A7FF422
:101330002AAF3846FFF72CF93B4903462A460DF100
:1013400001000B70FFF75EFD0546002D3FF4FAAE7D
:1013500022E6802005F004FA0223B3FBF0F300FB41
:1013600003F39A1E534253418EE6FFF717F92B7889
:10137000052B3FF4E7AE052331482B70FFF7B0F99A
:10138000E0E6FFF767F92B78042B3FF4DBAE254A44
:101390002B481378042123F0020329701370FFF700
:1013A0009FF9CFE6802005F0DBF90223B3FBF0F3D1
:1013B00003FB00F2971E7A427A4118E6802005F07E
:1013C000CFF90123B3FBF0F300FB03F3C3F10103F7
:1013D00083F0010382E7BDF80730002B3FF4BCAE79
:1013E000BDF805109DF8030000F0A2F801460028A2
:1013F0003FF410AE02780DF10100FFF703FD054642
:1014000086E7052A7FF4BFAE074902220DF10100ED
:101410000E80FFF7F7FC0546002D3FF493AEBBE5C9
:101420001D0800201C080020D80700202C1A0600E8
:10143000AC070020F8190600001A0600381A06004A
:10144000F419060038B505460C4605F07FFCA842A5
:1014500007D194E80300044A002382E803001846F9
:1014600038BD1023184638BDD007002008B14023EE
:1014700003600148704700BFD807002000B54FF057
:10148000805287B0D2F8A830D2F8A41000916FEA49
:1014900083436FEA9343244A9BB20D2102A819F0BB
:1014A000A7FA02A81AF0F7FAD0B3204B9DF808204B
:1014B0001A70012834D09DF809205A7002282FD0C4
:1014C0009DF80A209A7003282AD09DF80B20DA7024
:1014D000042825D09DF80C201A71052820D09DF8ED
:1014E0000D205A7106281BD09DF80E209A710728EE
:1014F00016D09DF80F20DA71082811D09DF8102021
:101500001A7209280CD09DF811205A720A2807D0A7
:101510009DF812209A720C2804BF9DF81320DA72ED
:1015200007B05DF804FB00BF4C1A0600200800203D
:1015300090B3012809D0022807D0032805D0042839
:1015400003D0052801D000207047174B03EB400360
:10155000587828B3154B10B553F82040F4B12378D0
:101560000BB9A01C10BD0020FFF780FF2178C1B18E
:101570002246C4F1010C02EB0C03DCB2234620F836
:10158000141012F8011F0029F5D101335B00DBB202
:1015900043F44073038010BD05487047204610BDDA
:1015A000704740F20233F5E7FC4206009042060025
:1015B000F6420600CA6943609A420FD310B48C69A0
:1015C0000460086FD21A18441C440867101E8C610E
:1015D00018BF01205DF8044BCA61704701F1280271
:1015E000026000208B677047CA6943609A4205D346
:1015F0008A6902600B67CB610020704701F1280205
:1016000002608B670020704784460068F0B591F84F
:1016100008E0002800F0EF84A0F213307C2800F2EC
:1016200081807C287ED8DFE810F0B7006702CC020A
:10163000950251010D010501D4027D007D007D0060
:101640007D007D007D005C04EC027D007D007D005E
:101650007D008204540233027D007D007D0003047E
:10166000590182007D007D007D007D001F04AD02D8
:1016700082007D007D007D007D007D007D00700387
:101680007D007D007D007D0031047F032C03680315
:1016900021027D007D000702DB016501FB031C03C5
:1016A0007D007D0060039D02480350037D007D00A6
:1016B000DC022403E4021403A5027D007D007D000A
:1016C0007D007D007D007D007D007D007D007D0032
:1016D0007D007D007D007D007D007D007D007D0022
:1016E0008804ED017D007D007D0015017D007D00F9
:1016F0007D007D0070047D007D007D007D004D0437
:101700007D007D007D007D007D007D008504580307
:101710007D007D007D007D00A9007D007D007D00B5
:101720007D00A90000231846CCF80030F0BD002A47
:1017300040F0888501240020A3428CF8040040F288
:101740001484C648006801340E7D0578AE4200F06E
:1017500011844578C248C34E057000203070A842FD
:10176000C0F0FC83C04D28780130C0B28645287097
:1017700000F2088440F29A330120D5E701240020CA
:1017800012B19CF804501554B64EB548057830781F
:101790000130C0B23070E2E7002A00F01B859CF8EF
:1017A00004001070012B4FF00B008CF8040040F285
:1017B0003B850546561C0324022035700D7D8CF8B0
:1017C0000450834240F2BD8410440570A3424FF0A0
:1017D00002008CF8040040F2978415190134287037
:1017E000A3424FF002008CF8040040F27E841519E9
:1017F00001342870A3424FF002008CF8040040F23C
:101800005D84151901342870487E8CF80400A342C9
:1018100040F24284151901342870A3424FF00000B1
:101820008CF8040040F22E841519013428708E4D76
:1018300000209BE7002A00F03E859CF80400154636
:101840000124E9E7002A00F032859CF804001546DF
:101850000124D8E7814801250668002012B19CF8D0
:101860000440145430780C7D844200F0BB838C7D9E
:10187000844200F070844020AB428CF8040040F2B7
:1018800051836C1C002A00F09C839CF80400505586
:10189000A3424FF000008CF8040040F27B8315193E
:1018A000013428706D480D7D00680078854200F095
:1018B00076838D7D85427FF467AF0020A3428CF84C
:1018C000040040F2D5842046013459E7002A00F094
:1018D000DD849CF80400154601248AE7002A40F0C4
:1018E0009E840124487E8CF80400A34240F2B88212
:1018F000013420E7002A00F0E5849CF804401546F6
:1019000001202C7098424FF003048CF8044080F0C2
:10191000AF83151801302C708C7D8CF804409842F0
:1019200080F0A183151801302C7098424FF0040408
:101930008CF8044080F09283151801302C70984286
:101940004FF024048CF8044080F083831518013094
:101950002C7098424FF002048CF8044080F074839D
:10196000151801302C7098424FF002048CF8044096
:1019700080F05683151801302C7098424FF0050402
:101980008CF8044080F04783151801302C70984281
:101990004FF024048CF8044080F03883151801308F
:1019A0002C7098424FF006048CF8044080F042837B
:1019B000151801302C700C7D8CF80440984280F092
:1019C0003483151801302C708D7D8CF804508342BF
:1019D00040F235831618441C357020480068B8E67C
:1019E000002A00F06A849CF80440154601202C70FF
:1019F00098424FF001048CF8044080F03E831518A3
:101A000001307EE7002A00F082849CF804401546ED
:101A100001202C70114C2668124C75782478A54250
:101A200040F27884B57834448342645D8CF8044095
:101A300040F26F83451C11E7002A00F03A849CF8BD
:101A40000440154601202C7098424FF024048CF875
:101A5000044080F01C8315180130C8E730080020CE
:101A60002E0800202D08002034080020002A00F055
:101A70001C849CF80440154601202C7098424FF0BD
:101A800005048CF8044080F00C8315180130DAE767
:101A9000A3480068002A00F0FB839CF80450174616
:101AA000012600243D7005780F7DAF4200F0FE82D4
:101AB0008F7DAF4200F075830025B3428CF804504F
:101AC00040F25382002A00F0BA839719741C3D70CB
:101AD0003AE6002A00F0D1839CF804001546012460
:101AE00028708F4800689C4245788CF8045080F03C
:101AF000F7821719661CD5E7002A40F0FC83087DA1
:101B00008CF80400012B40F21C83032002240225E0
:101B1000A3428CF8045040F2F782022483428CF8EE
:101B2000044040F2E282441C0220A3428CF80400EC
:101B300040F2C4820134487E8CF80400A34240F293
:101B4000AB8201340020A3428CF8040040F29A8258
:101B500001346CE6002A00F089839CF804001546E5
:101B600001243CE6002A00F0B3839CF804401546AB
:101B70000120EDE6002A00F0B1839CF804501646DF
:101B8000012429E7002A00F0F4829CF8040015469D
:101B900001242870A3424FF000008CF8040040F2AA
:101BA000EF82151901342870A3424FF000058CF81C
:101BB000045040F2DA81171959483D700068013429
:101BC000C2E5002A00F028839CF804501046012446
:101BD000FBE5002A00F073839CF8040015460124FD
:101BE00024E6002A00F078839CF804401546012082
:101BF000CCE6002A00F07B839CF8044015460120C7
:101C0000D8E6002A40F03D83744601254548007817
:101C1000A04280F0828300EB400001F10904404FB4
:101C2000265C8CF804600444AB423C6040F2AD8218
:101C30006C1C002A00F077829CF8040050559C42EE
:101C40004FF000008CF8040080F05982151901341F
:101C500046E7002A00F049839CF80440154601201D
:101C6000B1E6002A00F032839CF8044015460120BA
:101C70005AE6002A00F035839CF8044015460120FE
:101C80008EE6002A00F0ED829CF804401546012003
:101C90002C7083424FF010048CF8044040F22A82EA
:101CA000151801302C7083424FF001048CF8044069
:101CB00040F2098215180130DFE6002A00F0138394
:101CC0009CF80440154601204CE6002A00F01183E0
:101CD0009CF80440154601204EE6002A00F0C3821D
:101CE0009CF8040015460124DBE5002A00F0F2828E
:101CF0009CF804401546012020E6002A00F0BF822F
:101D00009CF8044015460120CCE705480068002AED
:101D100000F06D8217469CF804503D70012413E5D5
:101D200030080020340800200120002A40F0EA8218
:101D3000002483428CF8044040F2F08101301024EA
:101D400083428CF8044040F2D58101300124834263
:101D50008CF8044040F2B7810130052483428CF8AE
:101D6000044040F29E810130242483428CF80440D8
:101D700040F28D810130012483428CF8044040F20E
:101D80007C810130032483428CF8044040F270814E
:101D900001308C7D8CF80440834240F26481013034
:101DA000042483428CF8044040F2588101302424FA
:101DB00083428CF8044040F24C810130022483427B
:101DC0008CF8044040F240810130022483428CF8B8
:101DD000044040F225810130052483428CF8044000
:101DE00040F219810130242483428CF8044040F2EF
:101DF0000D810130062483428CF8044040F21A81A0
:101E000001300C7D8CF80440834240F20E81013099
:101E10008C7D8CF80440834240F21181441CDCE547
:101E2000002A00F051829CF804401546012072E51A
:101E300001240026002A00F0E2819CF8040090555D
:101E4000A3424FF002008CF8040040F2BE81151945
:101E500001342870487E8CF80400A3423FF6A1AEFE
:101E600040F22F3301205FE401240026002A00F015
:101E7000E0819CF8040090559C424FF000008CF8E3
:101E8000040080F0C4811519013482E60120002489
:101E9000002A00F07F819CF80450155583424FF0D2
:101EA00024048CF8044040F25181151801302C7044
:101EB00083424FF000048CF8044040F22F81151843
:101EC0000130E5E601250024002A74D09CF80400C6
:101ED0001055AB424FF040008CF8040022D96C1C26
:101EE000D5E401250024002A00F062819CF804005A
:101EF0001055AB424FF004008CF8040040F23481DE
:101F00005419013520700C7A80E601250020002A42
:101F100051D09CF804401454AB424FF040008CF870
:101F20000400DCD84FF461730120FFF7FDBB0124EE
:101F300000257EE601240025A4E401200024002AD7
:101F400000F0C6809CF80450155583424FF00504FC
:101F50008CF8044041D9151801305AE50720A342F6
:101F60008CF8040034D9601CE9E740F23D330120CD
:101F7000FFF7DABB0520A3428CF8040040F2208171
:101F8000601C85E70920A3428CF8040040F23281EE
:101F9000651CA8E740F285330120FFF7C5BB086A3E
:101FA000A34200788CF804003FF68DAC40F28A33EF
:101FB0000120FFF7B9BB4020AB428CF80400B1D937
:101FC0006C1C0020A3428CF80400E3D9013469E4BE
:101FD00040F26E330120FFF7A7BB40F26F330120C0
:101FE000FFF7A2BB0320AB428CF8040040F22F8124
:101FF000284601358BE708208CF80400002B7FF47D
:10200000CBAB40F213330120FFF78EBB40F25733C6
:102010000120FFF789BB40F256330120FFF784BB54
:1020200040F253330120FFF77FBB40F259330120C8
:10203000FFF77ABB4FF456730120FFF775BB40F2F0
:102040005A330120FFF770BB40F252330120FFF7F3
:102050006BBB40F251330120FFF766BB4FF4547362
:102060000120FFF761BB40F24D330120FFF75CBB5D
:102070004FF453730120FFF757BB40F24B3301205D
:10208000FFF752BB40F21A330120FFF74DBB40F27D
:102090004A330120FFF748BB40F219330120FFF714
:1020A00043BB40F249330120FFF73EBB0220B3425D
:1020B0008CF8040040F2D080741CBBE64FF44673E9
:1020C0000120FFF731BB40F246330120FFF72CBB64
:1020D000052483428CF804407FF67FAF013099E4F9
:1020E00040F229330120FFF71FBB40F217330120D4
:1020F000FFF71ABB40F245330120FFF715BB4FF441
:102100004A730120FFF710BB40F216330120FFF79E
:102110000BBB40F273330120FFF706BB4FF4517342
:102120000120FFF701BB9C428CF80420E7D2013468
:102130007C480068A34245788CF80450D0D9661CCE
:10214000B1E440F215330120FFF7EEBA40F2433319
:102150000120FFF7E9BA0220AB428CF8040040F2FC
:102160009A802C460135AFE640F222330120FFF77A
:10217000DBBA012400209C428CF80400FFF4B8ABC9
:1021800040F236330120FFF7CFBA40F22733012067
:10219000FFF7CABA242483428CF80440D6D9013010
:1021A000C6E50A20B3428CF8040079D9741C5DE6B8
:1021B0000420AB428CF80400D6D90C7A013525E511
:1021C00040F242330120FFF7AFBA40F22E33012034
:1021D000FFF7AABA0B20012B8CF8040024D9087D44
:1021E0008CF80400022BACD0042003248FE40124DB
:1021F000FFF7AABA40F221330120FFF795BA022077
:10220000A3428CF80400E0D90134FFF76BBB40F225
:1022100035330120FFF788BA0220012477E49CF8C7
:1022200004001546012414E64FF445730120FFF71E
:102230007BBA9C428CF80420E9D201349AE702343C
:10224000FFF787BA9CF8040015460124ABE44FF46D
:102250005E730120FFF768BA40F22D330120FFF7CB
:1022600063BA01206BE50124FFF71CBB012054E495
:1022700040F28F330120FFF757BA012458E70120BD
:1022800064E59CF80400144601253BE601244BE478
:102290000126144607E440F27D330120FFF744BADB
:1022A0004FF44D730120FFF73FBA012055E501249B
:1022B00041E4012058E5012444E401205BE50124C8
:1022C000FFF7B5BA01205DE5012062E5012067E571
:1022D000012073E501206AE5012084E50124FFF770
:1022E0007CBB012086E501206FE5012090E50120FF
:1022F00087E5012070E59CF8045016460224012071
:10230000FFF75BBA9CF8044015460120CFE5012099
:10231000FFF780BB00231B78FFDE024A0023136017
:102320001B78FFDE3008002070B90B681A7B202A6A
:1023300001D006207047D3F80EC0598A1A7DC3F821
:1023400018C099839A777047032070472DE9F047AA
:102350000B7888B00C4605460E2B70D8DFE803F0EA
:10236000180C18186F681D6F6F086F181818180070
:10237000C3690BB1032198472B680022C3E91E22D1
:10238000C3E9202203F134011A845A62DA625967E0
:102390000024204608B0BDE8F087027A002A00F049
:1023A0005981837A0930002B00F051818B78E97ACA
:1023B000415C9942ECD01B06E67856D406F0FD034A
:1023C000012BE5D0002E53D12C68012A04F10C0317
:1023D00000F040816A7B012A40F239810693AB7B91
:1023E000A76A9E4A05922B4493F80D80002F40F077
:1023F000A480E36FC4F88030E36AC4E91E77002B41
:1024000000F0978004F12C0393E8030004F1240307
:1024100083E803000023E36205A94046FEF76AF85B
:102420000446EB69002BB4D0002128469847B0E75A
:102430004B78D9094FEA531203D1012A3FD0062421
:10244000A7E712F0030215D0012AF8D1A378212BB7
:10245000F5D1B4F80720072AF1D10168601C1831C2
:1024600008B0BDE8F047FEF7CDBC06B3032E8FD011
:1024700003248EE703F01F03012BE0D1A378062B82
:10248000DDD105A80392FEF7F1FF03ABE2780093DC
:102490002179034606462846FDF730FE0528CED0B2
:1024A000601C039A3146FEF7ADFC044671E7EB6908
:1024B000002B3FF46DAF01212846984768E7A378C9
:1024C0000668202B1AD0222BB9D1B4F80730002B84
:1024D000B5D1B4F80330328C338403F0010102F03B
:1024E00001028A423FF454AFC369002900F084809E
:1024F000002B3FF44DAF0221984749E7B4F807306D
:10250000072B9CD100244FF4E462B28120460E36A2
:10251000CDE906340596FDF7C1F8204605A9FDF77B
:10252000D5FF0446002800F08A800020FDF7BEF8A1
:102530002FE700236362002473E7D4F884A0606A65
:10254000574528BF574604F1340C3A466146E146E8
:1025500019F0B8FBE26FE6673A44C4F88020E26AFB
:10256000AAEB070309EB070CC4E91DC3002AE0D05E
:1025700004F12C0797E8030004F124064FF000094A
:1025800086E80300C4F82C90F3B92FE0614619F0F7
:1025900099FBA26AA36FC4F880209B1AA367636F9C
:1025A00013446367EB6913B1002128469847E36A37
:1025B000002BBFD097E80300A36F86E80300C4F8A0
:1025C0002C909BB1D4F874C0D4E909029A42DDD9A9
:1025D0001A46614619F076FBA26FA36AE2679B1A5E
:1025E000A362636A13446362002BA4D005A940462A
:1025F000FDF780FF044614E70BB1032198472B7ABF
:10260000012B27D96B7B1BB3AB7B2B44187B03F0CF
:1026100041FB2B7A012B1DD96B7B012B17D9AB7B8F
:102620002B44587B03F036FB002306F13402C6E945
:102630001E33C6E920337362F3627267A8E6084B63
:1026400003A9CDE90335FEF7FDFE04466DE700233F
:102650001B78FFDE00235B78FFDE00BFB5150200AC
:10266000292302000368B3F820C01CF0010F16D024
:102670000B46017A012916D9417B91B110B5817BB6
:10268000084484B091060CBF0124002401A9007BFA
:102690000394CDE90132FDF719FF04B010BD082005
:1026A00070470B78FFDE00235B78FFDE0368D3F80A
:1026B00080007047F0B50468238CDB0783B022D517
:1026C0000546002016460F46FCF7E8FFA26F42B908
:1026D000636AE3B111260020FCF7E8FF304603B03F
:1026E000F0BDB24228BF3246616F3846154619F038
:1026F000E9FAD4E91D32521B2B44C4E91D320026ED
:10270000C4F88050E7E70826304603B0F0BDC4E9BE
:1027100009762A7A012A10D96A7B012A0FD9AA7B65
:10272000084B15440C34687B6946CDE90034FDF74D
:10273000E1FE061E08BF9226CDE75B78FFDE1B7820
:10274000FFDE00BFE915020010B50C4B0C4C0278FF
:1027500053F8213054F8211086B08DF80420D0E9C8
:10276000014202948DF80C20D0E9034201A80494A0
:102770008DF81420984706B010BD00BF480800200F
:10278000380800202DE9F047844615481CF8045B02
:10279000D1F800808F888E68B1F80CA0DFF84C90DB
:1027A0001446002A40F825400E4A0F4840F82530CC
:1027B0000FCA84B0EE468EE80F000CBF22464A4690
:1027C0002B4671466046CDF80080ADF80570029644
:1027D000ADF80CA000F0B6FE04B0BDE8F08700BF75
:1027E000480800201C430600380800204927020042
:1027F00010B568B90E4CA368012262703BB1D3E9F1
:1028000000230020A2609847A368002BF7D110BDD9
:102810000128FCD1064C2369A070002BF7D0D3E926
:1028200000230120226198472369002BF7D110BDB6
:1028300058080020014B1878704700BF5808002046
:1028400038B50C4C237843B185250B4BD3F80034B5
:102850000BB10123A370284638BD08486360A3600C
:102860002361E36002F03EFA054602F047FA0123D5
:102870002370EAE75808002000000140F127020019
:1028800038B5194DAB78044673B110B143680120D7
:1028900098470020FCF702FFEB680133EB60002053
:1028A000BDE83840FCF702BF03F0FF00FCF7F6FE7E
:1028B00064B12A6942B1944208D0134601E09C42B7
:1028C00004D01B68002BFAD122602C61EB683BB16D
:1028D000EB680133EB600020BDE83840FCF7E6BE52
:1028E00002F022FAF4E700BF5808002038B5194D6D
:1028F0006B78044673B110B14368002098470020FC
:10290000FCF7CCFE6B6801336B600020BDE83840FB
:10291000FCF7CCBE03F0FF00FCF7C0FE64B1AA6870
:1029200042B1944208D0134601E09C4204D01B6897
:10293000002BFAD12260AC606B683BB16B6801334D
:102940006B600020BDE83840FCF7B0BE02F0FEF935
:10295000F4E700BF5808002038B50B4C0020FCF706
:102960009DFE6368013B6360656825B1BDE8384042
:102970000020FCF79BBE02F0F9F965700020BDE86D
:102980003840FCF793BE00BF580800204FF080434A
:10299000D3F80C0400F00110A0F10110B0FA80F09F
:1029A0004009704710B5074C23784BB9064B0028F7
:1029B00008BF184602F052F808B90123237010BD71
:1029C000852010BD6C0800202C43060010B504467D
:1029D00002F070F802F076F8204602F05DF802F09E
:1029E00061F8002010BD00BF30B50A4B0A4C53F807
:1029F000213054F82110027885B0D0E901548DF8C7
:102A00000020C26801958DF80840039268469847F7
:102A100005B030BD7C0800207408002030B50A4B9A
:102A20000A4C53F8213054F82110027885B0D0E9CF
:102A300001548DF80020C26801958DF8084003927A
:102A40006846984705B030BD7C0800207408002017
:102A5000F0B5184B067843F82620174B0446487FFC
:102A600098551546154A8E46096942F8261022786F
:102A70009F5CBEE80F0089B0EC46ACE80F009EE812
:102A80000F008CE80F0004964FB1002D0C4A6946E8
:102A900008BF2A46201D01F04BFD09B0F0BD002DF6
:102AA000084A694608BF2A4604F10C0001F020FAE2
:102AB00009B0F0BD7C0800207008002074080020D8
:102AC000E92902001D2A020030B5234C94F8553044
:102AD00083B0002B3DD15A09012A30D103F01F01E8
:102AE00040F2FF32CA4012F0010F1C4A1CBFFF2106
:102AF000D15401332A2BEED12422FF21164819F09C
:102B000013F91749174BFF22002084F84E20E022CA
:102B1000C4F84F00888083F8062340221A60124BC5
:102B2000C3F87C01D3F87C110191019D4FF0004264
:102B3000012184F85510C3F8042303B030BD4FF0D1
:102B4000FF3222FA03F10548C90748BFC2540133D6
:102B5000C1E7082003B030BD84080020A808002089
:102B6000D308002000E100E000600040034B93F830
:102B70005500003818BF0120704700BF84080020AE
:102B800070B5584B03EB000C9CF924E0BEF1000F2C
:102B900030DA91F802E01EF0020F26D01C680134F2
:102BA00000F09B805C68013400F099809C680134DF
:102BB00000F08980DC68013400F087801C690134F2
:102BC00000F085805C69013400F083809C690134E9
:102BD00000F08180DC6901340AD1072443F8242005
:102BE00062B21C1884F824200CE01C6A013403D063
:102BF000042070BD082070BD1A62082283F84E00C0
:102C00008CF8242091F802C01CF0040F23D11CF092
:102C1000010F49D01F2887BF334C00F01F05054620
:102C20004FF0A04404EB8504D4F8005725F00205CA
:102C3000C4F800572D4C4FEAD00E00F0070614F8E8
:102C40000E504FF0010C0CFA06FC4CEA050C04F88F
:102C50000EC091F802C009781CF0020F1AD0930040
:102C600003F1804303F5C0430202D3F8100520F4BA
:102C70004F3020F44070C3F810050904D3F8100554
:102C800002F47C5201F440310A430243C3F8102598
:102C9000002070BD083A43FA82F292F84E3043EABF
:102CA000811382F84E30F3E71F284D7887BF0E4E10
:102CB00000F01F0404464FF0A04604F5E074AD0098
:102CC00046F82450B6E7022488E7032486E7042464
:102CD00084E7052482E7062480E700247EE70124B8
:102CE0007CE700BF8408002000030050D3080020C8
:102CF00030B4354C231882B093F92430072B10DD03
:102D0000234493F846309B09032B31D0012B0CBF91
:102D10004FF400324FF440321F2845D84FF0A04303
:102D200032E0DAB2072A20D89A0002F1804202F596
:102D3000C042D2F8100540F00100C2F8100503F1BE
:102D40004002920092B202F18042002002F5C0429D
:102D50000190019D106041B154F823202AB11B4914
:102D6000012202FA03F3C1F8043302B030BC704709
:102D70001F281DD84FF0A0421346D2F81025C2409C
:102D800002F001020232120403EB8003D3F80017B1
:102D900021F44031C3F80017D3F800170A43C3F8F1
:102DA000002702B030BC704700F01F00084BEBE773
:102DB000074BD3F8102500F01F00C24002F00102BB
:102DC00002321204F2E700BF8408002000600040D5
:102DD00000030050194B034493F92430072B13DDF3
:102DE0001F2886BF164B00F01F004FF0A04303EBD7
:102DF0008003D3F8002722F44032C3F80027D3F829
:102E00000027C3F800277047DAB2072A14D89A00BF
:102E100002F1804202F5C04210B4D2F81005094C0C
:102E2000012120F0010001FA03F3C2F81005C4F8F3
:102E300008335DF8044B7047704700BF84080020DA
:102E400000030050006000401F288ABF054B4FF070
:102E5000A04300F01F00D3F8103523FA00F000F073
:102E600001007047000300502DE9F04F85B002AF1C
:102E70000023B44A02937B60D2F80011012900F0CC
:102E80003B811E46AF4BD3F80421012A00F0258177
:102E9000AC4BD3F80821012A00F01081A94BD3F8DC
:102EA0000C21012A00F0FB80A64BD3F81021012A47
:102EB00000F0E880A34BD3F81421012A00F0D3805E
:102EC000A04BD3F81821012A00F0BE809D4BD3F807
:102ED0001C21012A09D09B4BD3F87C21012A00F048
:102EE000188146BB05B0BDE8F08FD3F80423120665
:102EF000F1D50022C3F81C21D3F81C110091D3F89E
:102F00007C110098012946F0800614D1C3F87C2179
:102F1000D3F87C3101934FF0A042019BD2F82015E9
:102F2000894B0291C2F82015D3F820250392C3F8EB
:102F3000202546F00046DFF8148201250024A30076
:102F400003F180432E4203F5C0430BD0D3F81005A4
:102F500058F82420D3F81015C0F30520C1F301411F
:102F600002B190470134082C4FEA4505E7D1002E05
:102F7000B8DA764D95F94EE05FFA8EF80EF0070B51
:102F80000021012628F0C00006FA0BF2C8F3C203A4
:102F900029B9BEF1FF3F02D0FB5C134211D14FF0C3
:102FA000A0426949D2F820350293C2F82035D1F801
:102FB000202503921343C1F82025E1D105B0BDE8D7
:102FC000F08F1F2887BFDFF880C10EF01F02024676
:102FD0004FF0A04C0CEB820306FA02F2D3F8004744
:102FE000D3F8001721F44031C3F800172918C4F3AF
:102FF000014491F92410022C55F82190D3F80017C0
:1030000014BF4FF4003A4FF4403A41EA0A01C3F8C2
:103010000017CCF82025B9F1000F09D04FEA98111C
:10302000032909D0022C05D0032C01D1022903D099
:103030000121A7E70129FBD1C84795F94EE05FFAC6
:103040008EF80EF0070BF3E7D3F8042351067FF553
:103050003DAF0022C3F81821D3F818310093009B2C
:1030600046F0400632E7D3F8042390067FF528AFF8
:103070000022C3F81421D3F814310093009B46F0CA
:1030800020061DE7D3F80423D4067FF513AF0022F2
:10309000C3F810210092009B46F010060AE7D3F80F
:1030A000042315077FF500AF0022C3F80C21D3F8E5
:1030B0000C310093009B46F00806F5E6D3F8042394
:1030C00052077FF5EBAE0022C3F80821D3F8083190
:1030D0000093009B46F00406E0E6D3F80423910732
:1030E0007FF5D6AE0022C3F80421D3F80431009353
:1030F000009B46F00206CBE6D2F8046316F0010608
:103100003FF4C0AEC2F80031D2F800310093009B0A
:10311000B8E60022C3F87C21D3F87C3101934FF04C
:10312000A042019BD2F82015074B0291C2F820154E
:10313000D3F820250392C3F82025002E3FF419AFC1
:10314000F7E600BF00600040000300508408002044
:1031500030B51C4C437944F823201B4C03EB43024D
:10316000A25C62BB8A7852015FFA82FC90F904206B
:10317000002A1CDB154DAB1883F800C301234FEA6E
:10318000521C02F01F02934045F82C3043794FEA5D
:10319000430E00680D88C0F808557344E21808799A
:1031A00050700120C978E0549170002030BD084D66
:1031B00002F00F024FEA430E05F802C0E9E70820CB
:1031C00030BD00BFE0080020DC08002000E100E086
:1031D00014ED00E090F90430002B10B40DDB5A0917
:1031E0000E4C0121203203F01F0301FA03F344F8CF
:1031F0002230BFF34F8FBFF36F8F0368084A01215E
:103200005960C3F84823C3F808234379054A03EB00
:1032100043030021D1545DF8044B704700E100E006
:1032200003000F00DC0800200368044A0121196034
:10323000437903EB43030221D1547047DC0800209B
:103240000368044901225A60437903EB4303CA54DB
:10325000704700BFDC080020F0B50468204E4FF432
:1032600080358D40C4F84853C4F80853407900EBCA
:10327000400CB44483B09CF8017022F07F42DFB16F
:1032800001F5A8774FEA400C44F827208444D4F88D
:1032900004756644A7EB020EBA4288BF0EF1FF1E0A
:1032A000B27888BF0EF57F4E964516DB53B90020E5
:1032B000C4F8445303B0F0BD01F5A87044F82020D1
:1032C000002BF4D05031890089B200236350635839
:1032D0000193019BC4F80453E9E70D2003B0F0BD4E
:1032E000DC08002003680122C3F84823C3F8082340
:1032F000704700BF2DE9F041274E284FDFF8A0802E
:1033000084B000244FF48035D6F804332B4211D01A
:1033100057F824300022E0B263B1C6F84853C6F82B
:10332000085347F8242057F824200392D8F8003097
:10333000039A98470134032C4FEA4505E4D1164B14
:10334000D3F80423D10702D5D3F80021C2B9124B18
:10335000D3F80423920710D5D3F804216AB10022D0
:10336000C3F80421D3F804210D4B0192019A1B6884
:10337000052004B0BDE8F041184704B0BDE8F08175
:103380000022C3F80021064AD3F80031029304203A
:103390001368029A9847DAE700B0004040B1004055
:1033A000E0080020204AD2F818317BB310B41F4B3C
:1033B0004FF080401C681E4BC0F8004E0021C2F840
:1033C0001811D2F8181193F8672083B0FF2A0191E1
:1033D00001990ED093F86610C9B11F2A86BF15480F
:1033E00002F01F024FF0A040012101FA02F2C0F8E2
:1033F0000C25D3E9124100220F4883F8652083F899
:103400005020234603B05DF8044B184770471F2A2D
:1034100086BF084802F01F024FF0A040012101FAC8
:1034200002F2C0F80825E4E700F00240E4080020BA
:10343000E808002000030050380900201D4AD2F897
:1034400018314BB310B400211B4BC2F81811D2F83D
:10345000181193F8432083B0FF2A019101990ED0EF
:1034600093F84210C9B11F2A86BF144802F01F0208
:103470004FF0A040012101FA02F2C0F80C25D3E977
:10348000094100220E4883F8412083F82C2023466E
:1034900003B05DF8044B184770471F2A86BF0748E2
:1034A00002F01F024FF0A040012101FA02F2C0F821
:1034B0000825E4E700300240E8080020000300503F
:1034C000140900201B4AD2F818312BB310B4002184
:1034D000194BC2F81811D2F81811DA7F83B0FF2AFD
:1034E000019101990DD0997FB9B11F2A86BF134868
:1034F00002F01F024FF0A040012101FA02F2C0F8D1
:103500000C25D3E9004100220D485A771A72234650
:1035100003B05DF8044B184770471F2A86BF074861
:1035200002F01F024FF0A040012101FA02F2C0F8A0
:103530000825E6E700300040E808002000030050BE
:10354000F00800202DE9F04F05799C4E05EBC509E8
:10355000924606EB890283B00C46117F00929B468F
:10356000EB000193002940F0D780D0F80080944907
:10357000074651F82510404601F044FC002840F071
:10358000FF804FEA8909009A46F809A0C2F804B002
:1035900094F80CC02178BCF1010F40F2B4801F29CF
:1035A00040F2BE8001F01F09864B012202FA09F2A7
:1035B000C3F808254A46834BD2B202F5E0724FF0B9
:1035C000010E43F822E06278FF2A00F0C1801F2A32
:1035D0001346009287BFDFF8ECE102F01F021A46A3
:1035E0004FF0A04E4FF0010909FA02F902F5E0721E
:1035F000CEF80C954FF003094EF82290A278FF2ADE
:1036000000F0A2801F2A8ABF02F01F0E9646DFF844
:10361000B491019298BF4FF0A0490EF5E07E4FF0B3
:10362000040B49F82EB0EB0003EB050E06EB8E0EF3
:103630008EF82020E2788EF81F20FF2A1FD094F801
:1036400004B0BBF1000F00F087801F2A00F2A280B7
:103650004FF0010E4FF0A0490EFA02FEC9F80CE53A
:103660004FF0A04EEB0003EB050906EB890902F5CC
:10367000E07289F81EB04FF003094EF82290009BCB
:10368000C8F80815A268C8F80C35019BC8F81035B1
:10369000C8F82425627B003A18BF0122BCF1020F52
:1036A00075D0BCF1030F6FD0BCF1010F01D142F016
:1036B0000202C8F85425A279C8F8C0250722C8F824
:1036C0000025BAF1000F13D03A68617942F307324E
:1036D0004901002AC9B24EDB3B4CA71887F80013FA
:1036E0000121570902F01F0201FA02F244F82720D3
:1036F000EB002B4406EB830600220123727733771D
:1037000003B0BDE8F08F1F2914D801224FF0A04E5E
:103710008A40CEF80C2509E0082003B0BDE8F08F00
:1037200001224FF0A04E8A40CEF808250A464FF0FD
:10373000A04342E701F01F09224B012202FA09F2DD
:10374000C3F80C254A4636E74FF0FF3301936AE78A
:103750004FF0FF33009351E71F2A26D9DFF864901A
:1037600002F01F024FF0010E0EFA02FEC9F808E542
:10377000DFF850E076E7154C02F00F02A154B7E7EE
:10378000112003B0BDE8F08F42F0060291E742F04D
:1037900004028EE7DFF82C9002F01F024FF0010EBA
:1037A0000EFA02FEC9F80CE5E2E74FF0010E4FF009
:1037B000A0490EFA02FEC9F808E551E7E808002022
:1037C000304306000003005000E100E014ED00E08B
:1037D000F8B50579274C05EBC50292000346A158C0
:1037E0000068EE00E9B140F30731002911DB480918
:1037F000DFF88CC02030012701F01F0107FA01F12A
:103800004CF82010BFF34F8FBFF36F8FA25818688A
:103810003AB1194BC0F80833731904EB83035B7F8B
:10382000E3B9731904EB830393F82030FF2B0BD01B
:103830001F2B86BF03F01F0310494FF0A04103F573
:10384000E073022241F823202E44002704EB860473
:10385000C0F8007501F0F4FA2777F8BD0123436141
:10386000D0F80431002BFBD0731904EB8303002242
:103870005A77D6E7E80800205201080000030050FC
:1038800000E100E02DE9F04F04797B4F04EBC40325
:10389000964607EB83028C46517F83B0002940F0A7
:1038A000A9809B00054657F803904FEAC408B9F178
:1038B000000F04D01EF0140F04BF0123537708EB50
:1038C000040607EB86069CE80F0096F81FA006F199
:1038D0000C0BBAF1FF0F8BE80F0010D0B27F5346EC
:1038E000002A6FD0BAF11F0F86BF64490AF01F0388
:1038F0004FF0A041012202FA03F3C1F80835DCF8C9
:1039000000202B6822B102F06041B1F1005F67D165
:10391000DCF8081021B101F06040B0F1005F5FD128
:10392000574DDCF80400DCF80C60C3F84425AB42CA
:10393000C3F84805C3F83415C3F838655ED00022D3
:10394000C3F81821D3F818210192019A1EF0010240
:1039500018BF0122C3F850251EF0020218BF012231
:103960001EF0080FC3F8402504BF01221A61B9F107
:10397000000F09D040221EF0040F14BFC3F8082323
:10398000C3F80423002032E0D3F81821002AFBD02A
:103990003B4A934269D0BAF1FF0FF3D0A04407EB42
:1039A0008807BB7F002B4BD0BAF11F0F86BF334A6D
:1039B0000AF01F0A4FF0A042012303FA0AF3C2F8EB
:1039C0000C35DFE7BAF11F0F86BF2C490AF01F0341
:1039D0004FF0A041012202FA03F3C1F80C358EE743
:1039E000A04407EB8808002388F81D30102003B09E
:1039F000BDE8F08F112003B0BDE8F08F4FF080419B
:103A0000D1F8005E1F490D60002898D01E4D22F4A9
:103A1000FF5121F01F01A94220D8C1F34F351044B6
:103A20000122AA40194E002501E0B14218D201F549
:103A30000051884245EA02054FEA4202F5D80FE0FC
:103A4000BAF11F0F86BF0D4A0AF01F0A4FF0A042BD
:103A5000012303FA0AF3C2F8083593E74FF480759F
:103A60004FF08042C2F8005E69E7064B1A684FF0DB
:103A70008043C3F8002E8EE7E808002000030050C2
:103A800000F00240E4080020FFFF00200020012099
:103A9000F0B590F804E02B4E0EEB4E0306EB8305D9
:103AA00083B02C7A002C49D19B004FEA4E07F2508C
:103AB00042794B686B60056852B105F5A07303EB62
:103AC000820C1C6053F8042B01929C45019AF8D19A
:103AD000CB785B01DAB245F30733002B29DB1A4CB4
:103AE000E51885F8002301225D0903F01F0302FA9F
:103AF00003F344F8253005684A78774406EB8706D7
:103B000001233372D5F8043562F30103C5F8043597
:103B1000D5F808358A7862F30103C5F80835D5F879
:103B200010350A78002062F30303C5F8103503B09E
:103B3000F0BD064803F00F03C254DDE7082003B0D0
:103B4000F0BD00BF5409002000E100E014ED00E0EA
:103B5000036843F30732002A30B40EDB5309114CDB
:103B60000121203302F01F0201FA02F244F823205F
:103B7000BFF34F8FBFF36F8F0368D3F8005200215C
:103B80004FF0FF340122C3F80012C3F808431A6152
:103B90000379054A03EB430302EB8303197230BC3C
:103BA000704700BF00E100E0540900200368054AA7
:103BB00001211960037903EB430302EB8303022124
:103BC00019727047540900200368054A01211961E0
:103BD000037903EB430302EB83031972704700BFC1
:103BE000540900200379064A03EB430302EB8302E6
:103BF000107AA0F10200B0FA80F04009704700BFCF
:103C0000540900208B0040330268DBB20120D05001
:103C100001F5A87152F82100704700BF006830B468
:103C200040F2011CD0F800420CFA01FC24EA0C041A
:103C3000C0F80042D0F8004282B023439DF81050F3
:103C4000C0F800324FF480338B4085B18C0004F50E
:103C5000A0740025055104590194019CC0F8043357
:103C600001F5A87140F8212002B030BC7047C0F8BF
:103C70000833F5E72DE9F041114D124FDFF8488088
:103C800082B000244FF480362B6806FA04F27BB130
:103C9000D7F80433A5F500401A424FF0000180B276
:103CA00006D029602B680193D8E90031019A984722
:103CB0000134042C05F10405E6D102B0BDE8F08121
:103CC0004081004000800040540900202DE9F0416F
:103CD000114D124FDFF8488082B000244FF4803637
:103CE0002B6806FA04F27BB1D7F8043305F5A0403F
:103CF0001A424FF0000180B206D029602B68019370
:103D0000D8E90331019A98470134062C05F10405DE
:103D1000E6D102B0BDE8F08140B1014000B0014001
:103D2000540900200000000030B56F4AD2F8043377
:103D300099058BB068D5D2F82431002B64D00021CE
:103D40006A4BC2F82411D2F8240193F8291001908B
:103D50004FF40170019CC2F8080309B901215160B8
:103D600061499C69D86802229FED5D7B8DF818201F
:103D7000D1F88024C1F88024CDE90704099283EDAD
:103D8000067BD3E9001206A89047574AD2F81C31A7
:103D9000C3B1564B5869196A88426AD993F82810FA
:103DA00001F0FF00002964D1C2F81C01D2F81C11F7
:103DB000039103999C68186A196A205C01311962A1
:103DC000C2F81C05484AD2F84431DBB10021474B08
:103DD000C2F84411D2F8440193F8291000900098D9
:103DE00009B1012111609A6962B1D8685C6A002149
:103DF0000122CDE9070499618DF8182006A8D3E9BE
:103E0000001290470BB030BD374AD2F804335B073D
:103E1000BBD5D2F80831002BB7D0344B99690029B3
:103E20003ED00021C2F80811D2F80811049104997B
:103E3000D868596AD2F8182542545A6A99690132E9
:103E40005A625A6A8A42A0D1DA69D868D3E9001462
:103E5000002A2ED09A61079000221869D860DA6192
:103E6000586A5A62012308908DF8183006A8A047B6
:103E70008BE71D4A0020C2F81C01D2F81C210292D7
:103E8000029A5A69002A9DD0D3E901215C698DF814
:103E90001800CDE907145861196806A8904791E702
:103EA000C2F80811D2F8080105900598D2F8182533
:103EB000C7E793F8292012B90B4A012555600A4A31
:103EC0004FF40175C2F80853002207909A61586AAE
:103ED000089001238DF8183006A8A04755E700BFC9
:103EE00000000000000000000020004070090020D9
:103EF0002DE9F0436A4F05792C2303FB057383B04A
:103F000093F82A30002B40F0928006460C46006859
:103F10006449904600F076FF002840F084802168D4
:103F200033684A1C14D01F2987BFDFF888E101F0ED
:103F30001F020A464FF0A04E4FF0010C0CFA02FC93
:103F400002F5E072CEF808C54FF0030C4EF822C01F
:103F5000D4F804C0BCF1FF3F0FD0BCF11F0F8BBFE2
:103F60000CF01F026246DFF84CE14FF0A04E02F564
:103F7000E0724FF000094EF82290A269C3F82425A0
:103F800094F814E0627DBEF1010F4EEA0202C3F81C
:103F90006C25C3F814C5C3F80C1551D02C2305FBB0
:103FA00003F3FA18C2F804802269FA50B8F1000F3E
:103FB00022D03368217F0022C3F81C21D3F81C4192
:103FC0000094009CC3F84421D3F844210192019A43
:103FD000354AC3F8042343F307324901002AC9B222
:103FE00029DB324CA31883F800130123510902F096
:103FF0001F02934044F8213033680422C3F800259F
:104000002C2303FB05F505F1180200233D44B918E4
:10401000BB5001224B6085F829306B6185F82A205E
:1040200003B0BDE8F083112003B0BDE8F0830820A1
:1040300003B0BDE8F0831E4C02F00F02A154DCE790
:10404000A268511C0ED01F2A8BBF02F01F0111461F
:10405000DFF860E04FF0A04E01F5E0714FF0000C8A
:104060004EF821C0E168B1F1FF3F14D01F2987BF8E
:10407000DFF8409001F01F0C8C464FF0A0494FF044
:10408000010E0EFA0CFE0CF5E07CC9F808E54FF0C5
:10409000030E49F82CE0C3F80815C3F810257DE796
:1040A00070090020293D02008000020000E100E0CC
:1040B00014ED00E000030050F8B5034606790068EF
:1040C000394C0022C0F800252C2202FB064252681F
:1040D000AAB1364AC0F8082340F30732002A0EDBA3
:1040E0005109334D2031012002F01F0200FA02F283
:1040F00045F82120BFF34F8FBFF36F8F1868D0F8BA
:104100000C55D0F81415D0F80835D0F810254FF01C
:10411000FF37BD42C0F81475C0F80C75C0F80875BB
:10412000C0F810750CD01F2D86BF05F01F05214F5C
:104130004FF0A04705F5E0754FF0020C47F825C099
:104140004D1C0BD01F2986BF01F01F01194D4FF0E8
:10415000A04501F5E071022745F82170511C0BD0F4
:104160001F2A86BF02F01F0212494FF0A04102F53C
:10417000E072022541F822505A1C0BD01F2B86BF3B
:1041800003F01F030B4A4FF0A04203F5E073022136
:1041900042F8231000F054FE2C2202FB06440023B8
:1041A00084F82A306360F8BD7009002084020200A0
:1041B00000E100E000030050F0B52D4D90F804C080
:1041C0002C2303FB0C530446586985B0002843D1C7
:1041D0005A612268186283F82800C2F81C01D2F8DC
:1041E0001C410294029C996001249460C2F81C0155
:1041F000D2F81C410194019C1C6A0E5D1C6A0134BA
:104200001C625C68C2F81C650CB105B0F0BD5E694B
:104210001C6AA64219D9074602E093F82840F4B96F
:10422000D2F81C41002CF8D0C2F81C71D2F81C4105
:104230000394039C1C6A11F804E01C6A01341C629C
:10424000C2F81CE51C6AA642EAD8D2F81C31002B41
:10425000FBD00123D36003E0112005B0F0BD0F2097
:104260002C2303FB0C5500236B6105B0F0BD00BF90
:10427000700900200279044B2C2101FB023358699C
:10428000003818BF0120704770090020F0B54A4E71
:1042900090F804C02C2404FB0C6487B06768A569FF
:1042A0008FB103684FF4017EC3F808E375B1E0698C
:1042B000002879D12161E2614FF40172C3F804232F
:1042C000002007B0F0BD002D65D103682C2404FB4D
:1042D0000C64E16094F82910A26100226262E2613C
:1042E00069B9C3F82411D3F824210192019AC3F8C3
:1042F0000811D3F808210292029A01221A60002FB5
:10430000DAD10022C3F84421D3F84421039203995F
:104310002C2202FB0C62D3F82411D3F80851D3F8F5
:10432000444165B954EA0105F5D02C2202FB0C6228
:104330000020906100293BD0032007B0F0BD54EA73
:104340000105F2D19169A1B1C3F80851D3F8081160
:1043500004910499D468516AD3F818356354536AA8
:10436000916901335362536A99420368D3D89561C6
:1043700008E0C3F80811D3F8081105910599D3F89E
:104380001815526A2C2202FB0C6292F8292042B1C5
:1043900001221A6094E7E36943B903682161E2618D
:1043A000AFE701225A608BE7C3F804E3112088E7E6
:1043B0000F20002C85D1E5E77009002000000000E7
:1043C000F0B5594BD3F824218BB0002A58D00022E5
:1043D000C3F82421D3F82411049102228DF8182067
:1043E0000499524AD3F88014C3F880149FED4C7B93
:1043F0000991D3F83C45D06882ED067BCDE90704EE
:10440000D2E9001306A89847474BD3F8442152B18C
:104410000021464AC3F84411D3F84401916903903E
:104420000398002960D1404BD3F8202162B10020CD
:10443000C3F82001D3F82021029201213B4A029CBB
:10444000D9605169002942D1374BD3F85821AAB11C
:104450000020C3F85801D3F85811344A019101994A
:10446000516959B1D3F84C458DF81800D2E90131A2
:104470005061CDE9071406A8116898470BB0F0BD4C
:10448000D3F810110029BFD0C3F81021D3F81011B0
:10449000264C05910599A169D3F83C058842B3D112
:1044A000E569E768A561D4E900167DB3E261D3F858
:1044B000002222F02002C3F800222369E3600123D6
:1044C000CDE907708DF8183006A8B0479CE7D3F8FF
:1044D0004C458DF81800D2E901315061CDE907143F
:1044E00006A811689847AFE79FED0D7BD3F83C45D0
:1044F000D0684FF0010CCDE9070482ED067BD2E9CC
:1045000000138DF818C006A898478CE70123CDE961
:1045100007708DF8183006A8B04775E7AFF3008034
:10452000000000000000000000200040A009002062
:104530002DE9F0470779DFF8DC8107EBC70308EBCB
:10454000830386B093F82030002B40F0A28005460C
:104550000C4600686B49914600F054FC002840F07E
:104560009480D4F800C02A68BCF1FF3F4FEAC70628
:1045700012D0BCF11F0F87BFDFF89CE10CF01F03C6
:1045800063464FF0A04E0121994003F5E073CEF849
:10459000081503214EF8231061684B1C0ED01F290B
:1045A0008BBF01F01F030B46DFF86CE14FF0A04E0C
:1045B00003F5E0734FF0000A4EF823A0A369C2F898
:1045C000243594F814E0637DBEF1010F4EEA030335
:1045D000C2F86C35C2F80CC5C2F8141562D0F219D5
:1045E00008EB8203C3F80490236948F82230B9F13C
:1045F000000F34D02B68217F0022C3F81021D3F89C
:1046000010410194019CC3F82021D3F82041029469
:10461000029CC3F82421D3F824410394039CC3F8DB
:104620004421D3F844410494049CC3F85821D3F89E
:1046300058210592059A344AC3F8042343F30732FC
:104640004901002AC9B228DB304CA31883F80013B3
:104650000123510902F01F02934044F821302B68D6
:104660003E44B60006F1180108EB01044644082553
:10467000C3F800550022012348F8012062607261EE
:1046800086F8203006B0BDE8F087112006B0BDE8FE
:10469000F087082006B0BDE8F0871D4C02F00F023D
:1046A000A154DDE7A368591C0ED01F2B8BBF03F06C
:1046B0001F011946DFF860E04FF0A04E01F5E071F0
:1046C0004FF0000C4EF821C0E168B1F1FF3F14D06B
:1046D0001F2987BFDFF840A001F01F0C8C464FF068
:1046E000A04A4FF0010E0EFA0CFE0CF5E07CCAF861
:1046F00008E54FF0030E4AF82CE0C2F80815C2F89E
:1047000010356CE7C14302001003420000E100E0F5
:1047100014ED00E0A009002000030050F0B5057979
:10472000534C05EBC50204EB820203465268006855
:1047300083B0EE00002A00F099804E4AC0F80823AA
:1047400040F30732002AC0F291805109DFF82CC1F2
:104750002031012702F01F0207FA02F24CF8212053
:10476000BFF34F8FBFF36F8F1968731904EB830387
:104770009A69D0F8003223F02003C0F8003242B129
:104780000023C0F84431D0F844310093009B01234A
:1047900043600023C0F85831D0F858310193019B91
:1047A0000123C360D0F85831002BFBD01AB1D0F8E8
:1047B0004431002BF6D00023C0F80035D1F80CC5E9
:1047C000D1F81475D1F80835D1F810254FF0FF3E17
:1047D000F445C1F80CE5C1F814E5C1F808E5C1F8E5
:1047E00010E50DD0BCF11F0F86BF0CF01F0CDFF8D9
:1047F00088E04FF0A04E0CF5E07C02214EF82C1022
:10480000791C0CD01F2F86BF07F01F07DFF868C088
:104810004FF0A04C07F5E07702214CF82710511C0F
:104820000BD01F2A86BF02F01F02134F4FF0A04784
:1048300002F5E072022147F822105A1C0BD01F2B00
:1048400086BF03F01F030C494FF0A04103F5E0734E
:10485000022241F8232000F0F3FA2E4404EB8604F0
:10486000002384F82030636003B0F0BD01467CE78C
:10487000A0090020100342000003005000E100E006
