:100000000000022019F0010001F0010003F00100DE
:1000100005F0010007F0010009F0010000000000F8
:10002000000000000000000000000000F9290200AC
:100030000DF0010000000000192A0200795B0300A6
:1000400095D3020029F2010025CA020019D7020047
:1000500019F2010013F0010039CF02001DF2010076
:10006000C9DE0200F9F10100F5F1010049D50200F5
:10007000FDF1010025F2010013F0010013F0010071
:10008000AD0B0300352802002DF2010031F2010012
:1000900001F2010005F2010009F201000DF2010078
:1000A00011F2010015F20100F1F1010021DF02005F
:1000B00041F2010013F00100000000000000000008
:1000C00013F001003DF2010039F2010091D6020067
:1000D00021F2010013F0010013F001001DFC0200E9
:1000E000EDF1010000000000000000000000000031
:1000F0000000000035F2010000000000F9D5020008
:1001000000000000000000000000000000000000EF
:1001100000000000000000000000000000000000DF
:1001200000000000000000000000000000000000CF
:1001300000000000000000000000000000000000BF
:1001400000000000000000000000000000000000AF
:10015000000000000000000000000000000000009F
:10016000000000000000000000000000000000008F
:10017000000000000000000000000000000000007F
:10018000000000000000000000000000000000006F
:10019000000000000000000000000000000000005F
:1001A000000000000000000000000000000000004F
:1001B000000000000000000000000000000000003F
:1001C000000000000000000000000000000000002F
:1001D000000000000000000000000000000000001F
:1001E000000000000000000000000000000000000F
:1001F00000000000000000000000000000000000FF
:020000021000EC
:10E00000EFBEADDE000000000000000000000000D8
:10E010000000000000000000000000000000000000
:10E0200000000000000000000000000000000000F0
:10E0300000000000000000000000000000000000E0
:10E0400000000000000000000000000000000000D0
:10F01000FEE7FEE700F002B8FFF7FCBF0A484FF03A
:10F020000701884385460948804709480949016026
:10F030000948016841F470010160BFF34F8FBFF3CD
:10F040006F8F00F00BB8000000000220490D030094
:10F0500008ED00E00000000088ED00E03749384886
:10F060000A1A02D0072291438D46364936480A1AB9
:10F0700006D00722914381F30988022282F3148883
:10F0800032483349334A00F03AF833483349344A76
:10F0900000F035F833483449344A00F030F8344849
:10F0A0003449354A00F02BF834483549354A00F0E8
:10F0B00026F835483549364A00F021F835483649B2
:10F0C000364A00F01CF836483649002200F02FF886
:10F0D00035483649002200F02AF826482649884259
:10F0E00005D00268043003B4904703BCF7E7002062
:10F0F0008646EC46002000212D4A9047FEE78842D4
:10F1000014D0521A12D003460B4313430324234254
:10F1100006D1036804300B600431043AF9D170471A
:10F12000037801300B700131013AF9D17047884200
:10F1300002D002700130FAE77047000000000220A0
:10F1400000F80120000002200000022024D3060065
:10F1500034010020C8060020B4F10100B4F1010020
:10F160000C19060024D306003401002034010020CD
:10F17000D41B0600D41B0600D41B0600D41B0600BB
:10F18000D41B0600D41B0600D41B0600D41B0600AB
:10F1900024D30600B8D80600C8060020C806002000
:10F1A000C806002068B1012068B1012070B10120BB
:04F1B000B9F10100B0
:10F1B40030BF704708B515F0EBFC11F02DFF15F0CA
:10F1C400EBFD15F027FD15F033FD40B913F0A0F960
:10F1D40013F0F8F913F026F917F02AFCFEE70421DE
:10F1E400012016F0FBF8F1E7FEE700BFFEE700BFE1
:10F1F400FEE700BFFEE700BFFEE700BFFEE700BF7B
:10F20400FEE700BFFEE700BFFEE700BFFEE700BF6A
:10F21400FEE700BFFEE700BFFEE700BFFEE700BF5A
:10F22400FEE700BFFEE700BFFEE700BFFEE700BF4A
:10F23400FEE700BFFEE700BFFEE700BFFEE700BF3A
:10F24400064B1A5C1F2A86BF054902F01F024FF0C5
:10F25400A04101239340C1F80C357047FC1B060004
:10F2640000030050064B1A5C1F2A86BF054902F0B2
:10F274001F024FF0A04101239340C1F808357047A5
:10F28400FC1B0600000300504FF0A04310B42020E4
:10F2940010244FF480014FF48042C3F80845C3F8AA
:10F2A40008055DF8044BC3F80815C3F80825704732
:10F2B4000A4B185C1F288ABF09494FF0A04100F08F
:10F2C4001F00D1F804350122824022EA03001340D2
:10F2D400C1F80805C1F80C35704700BFFC1B0600D7
:10F2E40000030050C10707D4830742BF4FF0A04377
:10F2F4000C22C3F8082770474FF0A04303221021C3
:10F3040010B4C3F810272024C3F81427C3F85827CF
:10F31400C3F83827C3F808154FF480424FF480012E
:10F32400C3F80845C3F80815C3F80825820704D5AF
:10F334004FF0A0430C22C3F808275DF8044B704734
:10F344000346002253E8000F00EA020143E8001CD0
:10F354009CF0000FF6D170472DE9F0430446406855
:10F3640000788BB00F461546984608287BD8DFE80E
:10F3740000F026264F59353505054A0052B304F1ED
:10F38400090900261C3401E0B54223D9BB19CDE993
:10F39400003810224B460121204607F0C9F81036E8
:10F3A4000028F1D010F5C14F5AD04BDC10F5C34FF3
:10F3B40050D010F5C24F4AD048F216500BE0217AD3
:10F3C40004F10903CDE9007804F11C0007F0B0F85A
:10F3D4000028E7D100200BB0BDE8F08312F00F063F
:10F3E40035D1002AF6D004F10C0901E0B542F1D977
:10F3F40008EB0603BA19217A484607F08FF810364D
:10F404000028F3D0CEE704F10C000BF02FFBDFE76C
:10F41400217A04F10903CDE9007804F11C0007F016
:10F42400CDFCD5E706ABCDE900310026CDF8088048
:10F4340004F1090305AA294604F11C00059607F006
:10F444006FFDC5E710F5A24F07D02230B4D148F2C2
:10F454001150C0E748F21550BDE748F21750BAE71B
:10F4640048F20350B7E748F20250B4E708B54268DF
:10F474001378082B28D8DFE803F02A2A0505383842
:10F4840005053F0052881C3005F06CFF10F5A24FB3
:10F4940028D00FDC10F5C24F33D010F5C14F13D074
:10F4A40010F5C34F48F2165348F2155214BF1846CC
:10F4B400104608BD10F1220F23D0002848F216533D
:10F4C40014BF1846002008BD48F2035008BD037A53
:10F4D4005288012B00F11C00D6D006F0D5FA10F5A5
:10F4E400A24FD6D148F2175008BD037A5288012B97
:10F4F40000F10C00F1D1C7E752880C300BF090FA00
:10F50400C4E748F2115008BD08B543681B78082BBE
:10F5140013D8DFE803F0050505050A0A05050E0002
:10F524001C3005F0F9FE002008BD0C3005F0F4FE97
:10F53400F9E70C300AF0CCFDF5E748F2035008BDBA
:10F544004268538870B5044623F0400080280D4675
:10F5540005D0B3F5807F02D048F2185070BD1378FF
:10F56400082B26D8DFE803F0050505051919222222
:10F574001400012D0ED80023A360E36023616361AE
:10F5840004F11C00237605F0C1FE0020257270BD35
:10F59400022D12D048F2175070BD012DFAD8002365
:10F5A400237204F10C0005F0B1FEEEE7022DF1D157
:10F5B400E1E748F203502572E9E704F10C0630460E
:10F5C4000AF082FD63685B88C02B1CD0B3F5807F92
:10F5D4001FD0802B19D128460AF048FD0146F8B106
:10F5E40030460AF08DFD0028CFD010F5C14FE0D091
:10F5F40011DC10F5C34F17D010F5C24F10D148F2EB
:10F6040011502572C3E70320E6E748F20250257241
:10F61400BDE70420E0E710F5A24F09D02230EED078
:10F6240048F216502572B2E748F215502572AEE73B
:10F6340048F217502572AAE770B5049D1E462B6840
:10F644000F2B18D900F10C0420460BF00FFA48B127
:10F6540010F5C14F23D011DD10F5A24F14D148F29B
:10F66400175070BD314620460BF0F2FA0028EFD156
:10F6740010232B6070BD48F2145070BD10F5C34FB9
:10F6840007D148F2155070BD223005D048F216500B
:10F6940070BD10F5C24FF9D148F2115070BD48F257
:10F6A400035070BD2DE9F0478AB01F46DDF848903D
:10F6B400D9F80030934214D3436812F00F081B7832
:10F6C400144605460E4602D09A1E012A2FD8082B4E
:10F6D40000F28D80DFE803F03030596442420A0AB8
:10F6E400730048F214500AB0BDE8F08784B305F102
:10F6F400090A4FF000081C3501E0444528D906EBFF
:10F704000803CDE90037102253460121284606F0AC
:10F714000FFF08F110080028EFD010F5C14F63D097
:10F7240054DC10F5C34F57D010F5C24F59D148F2ED
:10F7340011500AB0BDE8F087CDE9006705F109036F
:10F74400297A224605F11C0006F0F2FE0028E4D1D5
:10F754000020C9F800400AB0BDE8F087B8F1000FF6
:10F76400E5D1002CF4D005F10C0A01E04445EFD9B1
:10F7740007EB080306EB0802297A504606F0CEFE92
:10F7840008F110080028F1D0C7E7CDE9006705F1BA
:10F794000903297A224605F11C0007F00FFBD5E77F
:10F7A40006AB0021CDE900360591029705F1090366
:10F7B40005AA05F11C00214607F0B2FBC6E7224664
:10F7C400314605F10C000BF051F9BFE710F5A24FDB
:10F7D40005D148F2175086E748F2155083E72230E6
:10F7E400A5D048F216507EE748F203507BE748F272
:10F7F400025078E708B543681B7808301BB909F054
:10F80400C9FF002008BD0CF0AFFC002008BD00BFFC
:10F8140010B586B09DF83840A4F1040EBEF10C0F6B
:10F824002FD814F0010F2CD1A3F1070CBCF1060F53
:10F834003BD8012945D000293FD10D9904910C9959
:10F8440003910A99029109990191089900910594EB
:10F854000B99083009F0C4FF00282ADC10F1140FBA
:10F8640013DA10F5C24F44D010F5C14F3ED010F555
:10F87400C34F48F2165348F2155214BF18461046A7
:10F8840001E048F2625006B010BD1430142810D8BC
:10F89400DFE800F0130F270F0F270F130F0F0F0FC1
:10F8A4000F0F0F0F0F0F0F0F2A0048F2615006B011
:10F8B40010BD48F2165006B010BD48F2175006B0FD
:10F8C40010BD0D9904910C9903910A99029109991B
:10F8D40001910899009105940B99083009F066FF8D
:10F8E400BAE748F26050CEE70020CCE748F2035074
:10F8F400C9E748F21150C6E743685A8870B50D4607
:10F9040022F040018029044602D0B2F5807F34D130
:10F914001B781BB3032B02D048F2035070BD04F1D3
:10F92400080630460CF036FA636802215B882A46E2
:10F9340030460CF035FA0028F0D010F5C14FEBD06A
:10F944001EDC10F5C34F26D010F5C24F48F21652F4
:10F9540048F2115314BF1046184670BD04F108064E
:10F96400304609F0EFFE636802215B882A46304680
:10F9740009F0ECFE0028D1D0DFE748F2185070BD42
:10F98400143007280AD8072808D8DFE800F00A0747
:10F994000D07070D070A48F2155070BD48F21650BE
:10F9A40070BD48F2175070BD48F2605070BD00BF82
:10F9B4000B4669B111465AB110B5044658B1074A0D
:10F9C40002605A684360904708B10023236010BD69
:10F9D40048F21050704748F2015010BD414541446F
:10F9E40070B1094B02689A4210B5044605D14368C8
:10F9F4009B6898470023236010BD48F2025010BD55
:10FA040048F20150704700BF414541442DE9F04799
:10FA1400DDE90859DDE90A6EDDE90CC49DF838809A
:10FA2400002831D01D4F8A460168B94214D1BAB1B9
:10FA3400E4B105B326B3BCF1000F29D0CDE90BEC3A
:10FA4400CDE90D48CDE9099608954468E468514626
:10FA5400A446BDE8F047604748F20250BDE8F0878D
:10FA6400002BE5D048F21050BDE8F087B8F1000F44
:10FA7400F8D1002DDED1B9F1000FF3D1002EDAD187
:10FA8400BEF1000FDAD0EDE748F20150BDE8F0878F
:10FA9400BEF1000FD2D048F21350DFE74145414494
:10FAA40058B10B4661B110B511469A6843600446DB
:10FAB400904708B9044B236010BD48F201507047C9
:10FAC40048F21050704700BF63414553B8B1036812
:10FAD4000C4A934210B5044606D163682046DB689D
:10FAE40098470023236010BD02F17F6202F5402293
:10FAF40002F57C729342F0D048F2025010BD48F2F5
:10FB0400015070476341455368B130B4094C0568EE
:10FB1400A54204D151B1436830BC1B69184748F26F
:10FB2400025030BC704748F20150704748F2105000
:10FB3400F7E700BF6341455338B3F0B5DFF860C061
:10FB44000768674583B0044617D109B3CBB1089D54
:10FB5400BDB1009545682D6AA84748B92368BB42E2
:10FB640008D163682046DB689847A0B90B4B236033
:10FB740003B0F0BD094A9342F3D048F2025003B0F7
:10FB8400F0BD48F2135003B0F0BD48F20150704785
:10FB940048F21050ECE700232360E9E75345416342
:10FBA40063414553F0B50C4685B0002946D005465F
:10FBB40011461E46002846D0A36844609847044670
:10FBC40058BB3A4F2F60002E38D06B6831461B6902
:10FBD40028469847044600BB2B68BB4220D12746E1
:10FBE4006B685B695BB10A9A002A55D011462846B6
:10FBF400984748F203539842044600D048B90E9BF4
:10FC040000930B99DDE90C232846FFF795FF044682
:10FC140048B917B1384616F0E7FE204605B0F0BDE6
:10FC240048F20254F9E72B68204A93422BD16B68BF
:10FC34002846DB68984700232B60EAE748F2105413
:10FC4400204605B0F0BD6068039216F0CBFE039920
:10FC5400074620B3A3684460984704460028D9D1D6
:10FC6400124D3D6048F21054002ED3D07B683146CB
:10FC74001B693846984704460028CBD13B68AB4201
:10FC840010D13D46ACE702F17F6202F5402202F555
:10FC94007C729342BDD1CAE748F21054B9E748F2E6
:10FCA4001554BAE748F20254B4E700BF6341455320
:10FCB40059B142B1531E1A4005D18260016083805C
:10FCC400C26010467047092070470E20704700BF7D
:10FCD40010B48468C26803468088121B904203D221
:10FCE40004205DF8044B7047DC681A682040115406
:10FCF400DA685DF8044B01320020DA60704700BF17
:10FD040003468068DA6890420DD010B49A889C68E3
:10FD1400186822405DF8044B825C0A709A680132CC
:10FD240000209A6070470520704700BF03460020FA
:10FD3400DA689A60704700BF30B50478012C83B04C
:10FD440027D0022C0FD064B939493A48FFF7D8FFBD
:10FD5400002849D0384B03221B688DF800206846E0
:10FD6400984703B030BD354B354D1A78C168AA5C4D
:10FD740001918DF800403349002A30D1012203F16A
:10FD84000C000EF0A9FB2C4B68461B68984703B087
:10FD940030BD037AC3B143682B4D19782846FFF769
:10FDA40097FF002832D0244B01901B688DF8004047
:10FDB40068469847A968EB68AA885B1A9A4203D2F6
:10FDC400224B01221A70CCE71C4B1D4A1B781D499B
:10FDD400D35CB3B101221E480EF0D6FEC1E7012266
:10FDE400181D0EF0D1FECEE71448154A03781049C9
:10FDF400D35C0122ABB1043003B0BDE830400EF057
:10FE040065BE012213480EF067FBAAE7AA68EB68F7
:10FE14009A42CFD0084B8DF800001B68684698477B
:10FE2400C8E70C3003B0BDE830400EF0EBBA00BFB9
:10FE3400F0060020C8060020F4060020340100204B
:10FE440060F40020EC060020D8060020E80600201C
:10FE540038010020400100202DE9F0412F4E88B0E8
:10FE64003260002951D08A8804460E462C4809681D
:10FE74001D46FFF71DFF10B108B0BDE8F081B2893F
:10FE8400B1682848FFF714FF0028F5D194F810E072
:10FE9400637C254E254FBEF1000E18BF4FF0010EB6
:10FEA400002B0FCEEC46ACE80F0063680093236888
:10FEB4000193E3680293A368039396E80F0008BFD5
:10FEC4004FF000088CE80F0018BF4FF00E0863696C
:10FED400174A0693694638468DF814E08DF81C508D
:10FEE4008DF815800CF060FD0028C5D12368114AF7
:10FEF40001331070C0D0104A3B781049D35C012202
:10FF04003BB1381D0EF040FEB6E7072008B0BDE84F
:10FF1400F08107F10C000EF0DFFAADE7F4060020E3
:10FF2400D8060020C8060020581C06003401002012
:10FF34003DFD0100E806002060F40020EC060020EE
:10FF440008B50548FFF7F2FE00B108BDBDE808405A
:10FF54000248FFF7EBBE00BFD8060020C806002009
:10FF640070B5104D014610482E78FFF7C9FE0446BF
:10FF74000EB9204670BD0D480D490378CB5C0D4980
:10FF840000222A70012243B104300EF0FDFD002846
:10FF9400EFD002F0C3FB204670BD0C300EF09CFA8B
:10FFA400F5E700BFE8060020D80600203401002051
:10FFB40060F40020EC06002070B501461548FFF7F8
:10FFC40087FE044608B1204670BD134D134E2B78AE
:10FFD400F35CA3B1281D0EF0C9FD0028F3D110492C
:10FFE4000C48FFF78DFE0028EDD12B780C49F35C0B
:0CFFF40053B1BDE870400B4801220EF034
:020000022000DC
:1000000067BD05F10C000EF05DFAE8E7BDE8704051
:10001000064801220EF0F8B9C8060020340100207D
:1000200060F40020F006002038010020400100208C
:1000300008B50748074A0378D35C23B104300EF0B3
:1000400095FC002008BD0C300EF05EF9002008BDC4
:100050003401002060F40020CA6943609A420FD343
:1000600010B48C690460086FD21A18441C440867E5
:10007000101E8C6118BF01205DF8044BCA617047E7
:1000800001F12802026000208B677047CA69436053
:100090009A4205D38A6902600B67CB6100207047E2
:1000A00001F1280202608B670020704784460068D7
:1000B000F0B591F808E0002800F0EF84A0F21330CA
:1000C0007C2800F281807C287ED8DFE810F0B70021
:1000D0006702CC02950251010D010501D4027D0099
:1000E0007D007D007D007D007D005C04EC027D00D4
:1000F0007D007D007D008204540233027D007D007E
:100100007D000304590182007D007D007D007D009B
:100110001F04AD0282007D007D007D007D007D001A
:100120007D0070037D007D007D007D0031047F0334
:100130002C03680321027D007D000702DB016501BD
:10014000FB031C037D007D0060039D0248035003F8
:100150007D007D00DC022403E4021403A5027D007F
:100160007D007D007D007D007D007D007D007D00A7
:100170007D007D007D007D007D007D007D007D0097
:100180007D007D008804ED017D007D007D0015016E
:100190007D007D007D007D0070047D007D007D0080
:1001A0007D004D047D007D007D007D007D007D0093
:1001B000850458037D007D007D007D00A9007D0041
:1001C0007D007D007D00A90000231846CCF800309A
:1001D000F0BD002A40F0888501240020A3428CF85D
:1001E000040040F21484C648006801340E7D05788E
:1001F000AE4200F011844578C248C34E057000201D
:100200003070A842C0F0FC83C04D28780130C0B2E5
:100210008645287000F2088440F29A330120D5E721
:100220000124002012B19CF804501554B64EB54874
:10023000057830780130C0B23070E2E7002A00F073
:100240001B859CF804001070012B4FF00B008CF8FC
:10025000040040F23B850546561C032402203570FD
:100260000D7D8CF80450834240F2BD84104405702B
:10027000A3424FF002008CF8040040F29784151955
:1002800001342870A3424FF002008CF8040040F2C1
:100290007E84151901342870A3424FF002008CF8B7
:1002A000040040F25D84151901342870487E8CF8F2
:1002B0000400A34240F24284151901342870A3427D
:1002C0004FF000008CF8040040F22E841519013420
:1002D00028708E4D00209BE7002A00F03E859CF898
:1002E000040015460124E9E7002A00F032859CF855
:1002F000040015460124D8E781480125066800203E
:1003000012B19CF80440145430780C7D844200F003
:10031000BB838C7D844200F070844020AB428CF81B
:10032000040040F251836C1C002A00F09C839CF86E
:1003300004005055A3424FF000008CF8040040F236
:100340007B831519013428706D480D7D0068007895
:10035000854200F076838D7D85427FF467AF002073
:10036000A3428CF8040040F2D5842046013459E7BA
:10037000002A00F0DD849CF80400154601248AE779
:10038000002A40F09E840124487E8CF80400A34299
:1003900040F2B882013420E7002A00F0E5849CF89E
:1003A0000440154601202C7098424FF003048CF84D
:1003B000044080F0AF83151801302C708C7D8CF8D0
:1003C0000440984280F0A183151801302C709842A7
:1003D0004FF004048CF8044080F09283151801302B
:1003E0002C7098424FF024048CF8044080F08383F2
:1003F000151801302C7098424FF002048CF804401C
:1004000080F07483151801302C7098424FF002046C
:100410008CF8044080F05683151801302C709842F7
:100420004FF005048CF8044080F047831518013024
:100430002C7098424FF024048CF8044080F03883EC
:10044000151801302C7098424FF006048CF80440C7
:1004500080F04283151801302C700C7D8CF804401C
:10046000984280F03483151801302C708D7D8CF803
:100470000450834240F235831618441C35702048DE
:100480000068B8E6002A00F06A849CF8044015462B
:1004900001202C7098424FF001048CF8044080F049
:1004A0003E83151801307EE7002A00F082849CF814
:1004B0000440154601202C70114C2668124C7578AA
:1004C0002478A54240F27884B57834448342645D50
:1004D0008CF8044040F26F83451C11E7002A00F0BD
:1004E0003A849CF80440154601202C7098424FF045
:1004F00024048CF8044080F01C8315180130C8E7F0
:10050000FC060020F9060020F80600200007002065
:10051000002A00F01C849CF80440154601202C7031
:1005200098424FF005048CF8044080F00C831518B5
:100530000130DAE7A3480068002A00F0FB839CF84A
:1005400004501746012600243D7005780F7DAF4208
:1005500000F0FE828F7DAF4200F075830025B3422C
:100560008CF8045040F25382002A00F0BA839719A5
:10057000741C3D703AE6002A00F0D1839CF8040018
:100580001546012428708F4800689C4245788CF8F5
:10059000045080F0F7821719661CD5E7002A40F056
:1005A000FC83087D8CF80400012B40F21C8303209F
:1005B00002240225A3428CF8045040F2F782022460
:1005C00083428CF8044040F2E282441C0220A342A1
:1005D0008CF8040040F2C4820134487E8CF8040098
:1005E000A34240F2AB8201340020A3428CF8040005
:1005F00040F29A8201346CE6002A00F089839CF86C
:100600000400154601243CE6002A00F0B3839CF860
:10061000044015460120EDE6002A00F0B1839CF865
:1006200004501646012429E7002A00F0F4829CF8C1
:100630000400154601242870A3424FF000008CF8F6
:10064000040040F2EF82151901342870A3424FF0E4
:1006500000058CF8045040F2DA81171959483D70B2
:1006600000680134C2E5002A00F028839CF8045099
:1006700010460124FBE5002A00F073839CF8040077
:100680001546012424E6002A00F078839CF80440F3
:1006900015460120CCE6002A00F07B839CF804403C
:1006A00015460120D8E6002A40F03D837446012516
:1006B00045480078A04280F0828300EB400001F1C1
:1006C0000904404F265C8CF804600444AB423C6053
:1006D00040F2AD826C1C002A00F077829CF8040086
:1006E00050559C424FF000008CF8040080F0598275
:1006F0001519013446E7002A00F049839CF80440AC
:1007000015460120B1E6002A00F032839CF804402F
:10071000154601205AE6002A00F035839CF8044073
:10072000154601208EE6002A00F0ED829CF8044078
:10073000154601202C7083424FF010048CF80440C1
:1007400040F22A82151801302C7083424FF00104C8
:100750008CF8044040F2098215180130DFE6002AC7
:1007600000F013839CF80440154601204CE6002A53
:1007700000F011839CF80440154601204EE6002A43
:1007800000F0C3829CF8040015460124DBE5002A32
:1007900000F0F2829CF804401546012020E6002A71
:1007A00000F0BF829CF8044015460120CCE70548C4
:1007B0000068002A00F06D8217469CF804503D70D6
:1007C000012413E5FC060020000700200120002A78
:1007D00040F0EA82002483428CF8044040F2F08129
:1007E0000130102483428CF8044040F2D58101305E
:1007F000012483428CF8044040F2B7810130052483
:1008000083428CF8044040F29E81013024248342CC
:100810008CF8044040F28D810130012483428CF831
:10082000044040F27C810130032483428CF8044070
:1008300040F2708101308C7D8CF80440834240F29C
:1008400064810130042483428CF8044040F25881D2
:100850000130242483428CF8044040F24C81013062
:10086000022483428CF8044040F24081013002248B
:1008700083428CF8044040F22581013005248342F4
:100880008CF8044040F219810130242483428CF812
:10089000044040F20D810130062483428CF804406C
:1008A00040F21A8101300C7D8CF80440834240F202
:1008B0000E8101308C7D8CF80440834240F211811E
:1008C000441CDCE5002A00F051829CF804401546E7
:1008D000012072E501240026002A00F0E2819CF844
:1008E00004009055A3424FF002008CF8040040F23F
:1008F000BE81151901342870487E8CF80400A3428B
:100900003FF6A1AE40F22F3301205FE40124002620
:10091000002A00F0E0819CF8040090559C424FF0C2
:1009200000008CF8040080F0C4811519013482E6BF
:1009300001200024002A00F07F819CF80450155506
:1009400083424FF024048CF8044040F25181151882
:1009500001302C7083424FF000048CF8044040F2C8
:100960002F8115180130E5E601250024002A74D0F6
:100970009CF804001055AB424FF040008CF8040086
:1009800022D96C1CD5E401250024002A00F06281E4
:100990009CF804001055AB424FF004008CF80400A2
:1009A00040F234815419013520700C7A80E601251B
:1009B0000020002A51D09CF804401454AB424FF060
:1009C00040008CF80400DCD84FF461730120FFF77D
:1009D000FDBB012400257EE601240025A4E40120BE
:1009E0000024002A00F0C6809CF80450155583426C
:1009F0004FF005048CF8044041D9151801305AE530
:100A00000720A3428CF8040034D9601CE9E740F2C7
:100A10003D330120FFF7DABB0520A3428CF8040028
:100A200040F22081601C85E70920A3428CF8040075
:100A300040F23281651CA8E740F285330120FFF7C0
:100A4000C5BB086AA34200788CF804003FF68DAC61
:100A500040F28A330120FFF7B9BB4020AB428CF84B
:100A60000400B1D96C1C0020A3428CF80400E3D927
:100A7000013469E440F26E330120FFF7A7BB40F276
:100A80006F330120FFF7A2BB0320AB428CF80400B8
:100A900040F22F81284601358BE708208CF80400AE
:100AA000002B7FF4CBAB40F213330120FFF78EBB5A
:100AB00040F257330120FFF789BB40F25633012043
:100AC000FFF784BB40F253330120FFF77FBB40F2B6
:100AD00059330120FFF77ABB4FF456730120FFF71B
:100AE00075BB40F25A330120FFF770BB40F252331E
:100AF0000120FFF76BBB40F251330120FFF766BBCB
:100B00004FF454730120FFF761BB40F24D330120D5
:100B1000FFF75CBB4FF453730120FFF757BB40F264
:100B20004B330120FFF752BB40F21A330120FFF78D
:100B30004DBB40F24A330120FFF748BB40F2193366
:100B40000120FFF743BB40F249330120FFF73EBBD2
:100B50000220B3428CF8040040F2D080741CBBE643
:100B60004FF446730120FFF731BB40F246330120BA
:100B7000FFF72CBB052483428CF804407FF67FAF3F
:100B8000013099E440F229330120FFF71FBB40F206
:100B900017330120FFF71ABB40F245330120FFF75E
:100BA00015BB4FF44A730120FFF710BB40F2163318
:100BB0000120FFF70BBB40F273330120FFF706BBA8
:100BC0004FF451730120FFF701BB9C428CF80420C5
:100BD000E7D201347C480068A34245788CF8045081
:100BE000D0D9661CB1E440F215330120FFF7EEBA0C
:100BF00040F243330120FFF7E9BA0220AB428CF800
:100C0000040040F29A802C460135AFE640F22233D0
:100C10000120FFF7DBBA012400209C428CF804007D
:100C2000FFF4B8AB40F236330120FFF7CFBA40F201
:100C300027330120FFF7CABA242483428CF80440EA
:100C4000D6D90130C6E50A20B3428CF8040079D920
:100C5000741C5DE60420AB428CF80400D6D90C7AF3
:100C6000013525E540F242330120FFF7AFBA40F2EB
:100C70002E330120FFF7AABA0B20012B8CF80400B9
:100C800024D9087D8CF80400022BACD00420032466
:100C90008FE40124FFF7AABA40F221330120FFF7C5
:100CA00095BA0220A3428CF80400E0D90134FFF782
:100CB0006BBB40F235330120FFF788BA02200124D4
:100CC00077E49CF804001546012414E64FF44573BC
:100CD0000120FFF77BBA9C428CF80420E9D2013452
:100CE0009AE70234FFF787BA9CF8040015460124FE
:100CF000ABE44FF45E730120FFF768BA40F22D3386
:100D00000120FFF763BA01206BE50124FFF71CBB4C
:100D1000012054E440F28F330120FFF757BA012439
:100D200058E7012064E59CF80400144601253BE6E1
:100D300001244BE40126144607E440F27D330120F0
:100D4000FFF744BA4FF44D730120FFF73FBA01207B
:100D500055E5012441E4012058E5012444E4012043
:100D60005BE50124FFF7B5BA01205DE5012062E5EE
:100D7000012067E5012073E501206AE5012084E593
:100D80000124FFF77CBB012086E501206FE50120EF
:100D900090E5012087E5012070E59CF80450164697
:100DA00002240120FFF75BBA9CF80440154601209D
:100DB000CFE50120FFF780BB00231B78FFDE024A4E
:100DC000002313601B78FFDEFC06002070B90B685F
:100DD0001A7B202A01D006207047D3F80EC0598A0A
:100DE0001A7DC3F818C099839A777047032070471B
:100DF0002DE9F0470B7888B00C4605460E2B70D8CD
:100E0000DFE803F0180C18186F681D6F6F086F1873
:100E100018181800C3690BB1032198472B680022EA
:100E2000C3E91E22C3E9202203F134011A845A6265
:100E3000DA6259670024204608B0BDE8F087027ADC
:100E4000002A00F05981837A0930002B00F051818B
:100E50008B78E97A415C9942ECD01B06E67856D44F
:100E600006F0FD03012BE5D0002E53D12C68012A9A
:100E700004F10C0300F040816A7B012A40F23981C1
:100E80000693AB7BA76A9E4A05922B4493F80D808C
:100E9000002F40F0A480E36FC4F88030E36AC4E917
:100EA0001E77002B00F0978004F12C0393E80300D9
:100EB00004F1240383E803000023E36205A940460C
:100EC00000F0CEFB0446EB69002BB4D0002128468D
:100ED0009847B0E74B78D9094FEA531203D1012A5A
:100EE0003FD00624A7E712F0030215D0012AF8D15B
:100EF000A378212BF5D1B4F80720072AF1D1016896
:100F0000601C183108B0BDE8F04701F031B806B3F5
:100F1000032E8FD003248EE703F01F03012BE0D1B3
:100F2000A378062BDDD105A8039201F055FB03AB96
:100F3000E2780093217903460646284600F094F9AA
:100F40000528CED0601C039A314601F011F8044602
:100F500071E7EB69002B3FF46DAF012128469847FC
:100F600068E7A3780668202B1AD0222BB9D1B4F8F1
:100F70000730002BB5D1B4F80330328C338403F042
:100F8000010102F001028A423FF454AFC369002913
:100F900000F08480002B3FF44DAF0221984749E7D1
:100FA000B4F80730072B9CD100244FF4E462B281DF
:100FB00020460E36CDE90634059601F0D9FB2046D1
:100FC00005A900F039FB0446002800F08A800020C3
:100FD00001F0D6FB2FE700236362002473E7D4F807
:100FE00084A0606A574528BF574604F1340C3A463E
:100FF0006146E1461AF0A2FFE26FE6673A44C4F8A0
:101000008020E26AAAEB070309EB070CC4E91DC3C1
:10101000002AE0D004F12C0797E8030004F124062D
:101020004FF0000986E80300C4F82C90F3B92FE0D4
:1010300061461AF083FFA26AA36FC4F880209B1A4E
:10104000A367636F13446367EB6913B100212846FC
:101050009847E36A002BBFD097E80300A36F86E8A8
:101060000300C4F82C909BB1D4F874C0D4E90902F1
:101070009A42DDD91A4661461AF060FFA26FA36A50
:10108000E2679B1AA362636A13446362002BA4D0D5
:1010900005A9404600F0E4FA044614E70BB1032129
:1010A00098472B7A012B27D96B7B1BB3AB7B2B4447
:1010B000187B0EF019FD2B7A012B1DD96B7B012BB0
:1010C00017D9AB7B2B44587B0EF00EFD002306F1A5
:1010D0003402C6E91E33C6E920337362F3627267D5
:1010E000A8E6084B03A9CDE9033501F061FA0446EF
:1010F0006DE700231B78FFDE00235B78FFDE00BF77
:1011000059000200CD0D02000368B3F820C01CF0A6
:10111000010F16D00B46017A012916D9417B91B1F6
:1011200010B5817B084484B091060CBF01240024D3
:1011300001A9007B0394CDE9013200F07DFA04B0EF
:1011400010BD082070470B78FFDE00235B78FFDEC0
:101150000368D3F880007047F0B50468238CDB0780
:1011600083B022D50546002016460F4601F000FB4D
:10117000A26F42B9636AE3B11126002001F000FBBF
:10118000304603B0F0BDB24228BF3246616F3846E8
:1011900015461AF0D3FED4E91D32521B2B44C4E984
:1011A0001D320026C4F88050E7E70826304603B019
:1011B000F0BDC4E909762A7A012A10D96A7B012A8E
:1011C0000FD9AA7B084B15440C34687B6946CDE9DE
:1011D000003400F045FA061E08BF9226CDE75B7882
:1011E000FFDE1B78FFDE00BF8D0002000378052BB9
:1011F00002D0094B1B681847084BD3F88424D3F856
:101200008034DBB2002BF4D1054BD2B2052A08BFE3
:101210001846014B1B681847040700200070024065
:10122000B41C0600014B02481B6818470407002045
:101230008C1C060001280AD0022804D058B9064B9D
:1012400006481B681847044B05481B681847024BA3
:1012500004481B681847704704070020AC1C0600B0
:10126000A41C0600A81C06002DE9F04F89B000253B
:1012700004460E4601929846049500E001356268E6
:101280000123D2F804902146002204A8C847002870
:10129000F4D18DF80E00069085B3814682460BE0AE
:1012A0009DF80E306768023BD7F804B0D8479DF828
:1012B0000E309A44554521D962680123D2F804B012
:1012C00021460DF10E0206A8D84761680123D1F826
:1012D00004B00DF10F02214606A8D8479DF80F3043
:1012E000B3424FF00002214606A8D9D1019B4B45DD
:1012F00008D009F101095FFA89F9D1E7052009B0A1
:10130000BDE8F08F129A9DF80E30136088F8003017
:1013100088F801606268023B556808F10202A8473C
:10132000002009B0BDE8F08FF0B5054683B0324823
:101330000EF0DCFC044610B1204603B0F0BD2F498E
:101340002F4A304B08701060214648222E481C60FE
:101350001AF026FE2D48482221461AF021FE002DC3
:1013600044D095E807002A4B83E80700002837D0CF
:1013700000200BF071FA08B1852834D1254D6A6838
:101380002B7A146803B305F1090C4FF0030E1F4EBE
:101390001D4F1EFB03CE9CF8010088B19CF8022073
:1013A00010446044624412F8011B01F00F03DB009B
:1013B00009064CBFDB199B198242C3E90054F2D1E4
:1013C0000CF1030CF445E6D10B2312488DF80430E0
:1013D00001A9A04704460028AED00EF01DFDABE7E2
:1013E0000D4A1A60C4E701F09BF9C7E7084B0A4AA7
:1013F0001D72C3E90025BBE7ED11020011070020B3
:101400001807002014070020640700201C07002094
:1014100004070020CC1C06004D18020008B50EF091
:1014200091FF40B10EF096FF28B905480BF028FA5D
:1014300018B9002008BD082008BD01F071F9F8E7CF
:10144000B01C06000EF0F2BC0EF072BD4FF08043EF
:1014500003E0D3F83824D10707D5D3F8382492070E
:10146000F7D5024B02481B68184770470407002055
:10147000A01C060000B5054B83B082221B688DF8C6
:10148000042001A8984703B05DF804FB040700207E
:10149000F0B5047A83B0002C52D000F1090E04EBB1
:1014A0004404294E294F744471464D780022AA42C3
:1014B00001EB020314D091F802C013F80CC00CF039
:1014C0000F031CF0800F4FEAC30307D133441B689E
:1014D0000132002BEBD0112003B0F0BD3B44F6E706
:1014E00003318C42E1D14368174F1D68DFF85CC0BF
:1014F0009EF801608EB19EF8022016447644724434
:1015000012F8011B01F00F03DB0009064CBF634416
:10151000DB199642C3E90005F2D10EF1030E7445C2
:10152000E6D10B4A13681BB11A681368002BFBD174
:101530000B23106001A98DF80430A84703B0F0BD5B
:1015400043681D68EDE700BF1C070020640700200A
:1015500018070020024B1878003818BF0120704788
:1015600010070020030710B5044604D52046BDE847
:1015700010400FF03FB80FF0BFFA20460FF062FAAC
:101580002046BDE810400FF035B800BF0FF09EB800
:10159000014B1868704700BF180700200D4B10B5AD
:1015A0008646186878B1047A74B10346002202E0D6
:1015B0000132A24208D093F809C0F44503F10303B5
:1015C000F6D101B10A7010BD036818680028EAD18D
:1015D00010BD00BF18070020436811461B6818475C
:1015E00000F00F03082B0AD802064CBF054A064A32
:1015F000DB001344186810B143681B6818471020BB
:10160000704700BF640700201C07002038B5094B55
:101610001C6864B1054602E023681C683CB163683D
:1016200029461B68204698470628F5D038BD062075
:1016300038BD00BF1807002038B504460D460EF02F
:10164000C9FF18B1054B1B78022B01D0082038BD0B
:1016500029462046BDE838400FF0FCB811070020AD
:1016600038B504460D460EF0B5FF18B1054B1B7892
:10167000022B01D0082038BD29462046BDE838405D
:101680000FF080B911070020F8B543689B68054644
:101690000E4614461BB19847062800D0F8BD34BB4F
:1016A0002B7AB34228D9093506EB46010D446B78F5
:1016B000DBB11F4605E001340EF09CFFA74214D0B9
:1016C0006B78E2B2934214D9AB782A19D65C33070F
:1016D0003046F0D40FF010FA30460FF0B3F9013471
:1016E00030460EF087FFBC42EAD10020F8BD07204B
:1016F000F8BD00231B78FFDE6378FFDE43681B69BB
:1017000003B11847184670472C4B2DE9F047D3F822
:101710000090B9F1000F48D099F808A0BAF1000F75
:101720003CD009F10906002704E00137574506F1CE
:10173000030633D0D9F804309B68FCB22BB10022E9
:101740002146484698470628EFD199F80830A34229
:101750002DD97378002BE8D09846002405E0013499
:101760000EF048FFA045E0D07378E2B29A4221D251
:10177000B3783219D55C2B072846F0D40FF0BCF9AA
:1017800028460FF05FF9013428460EF033FFA045DC
:10179000EAD10137574506F10306CBD1D9F800301D
:1017A000D3F80090B9F1000FB6D1BDE8F08700235F
:1017B0005B78FFDE00231B78FFDE00BF18070020E8
:1017C0002DE9F843204BD3F80080B8F1000F35D055
:1017D00098F80890B9F1000F29D008F10905002701
:1017E000D8F80430DB68FCB213B121464046984774
:1017F00098F80830A34223D96B789BB10024E2B259
:1018000093421E460BD92A19AB780134D05C0EF0F6
:101810005DFFA64206D06B78E2B29342F3D8002374
:101820001B78FFDE01374F4505F10305D8D1D8F805
:101830000030D3F80080B8F1000FC9D1BDE8F883BB
:1018400000235B78FFDE00BF18070020037870B527
:101850000446852B00F2BD80DFE813F04F02A201A1
:10186000BC00CD01F401DF00E600BB00FE00110169
:101870002401BB00BB00BB00BB003701BB00BB00A9
:10188000BB00BB00BB00BB00BB00BB00BB00BB0080
:10189000BB00BB00BB00BB00BB00BB00BB00BB0070
:1018A000BB00BB00BB00BB00BB00BB00BB00BB0060
:1018B000BB00BB00BB00BB00BB00BB00BB00BB0050
:1018C000BB00BB00BB00BB00BB00BB00BB00BB0040
:1018D000BB00BB00BB00BB00BB00BB00BB00BB0030
:1018E000BB00BB00BB00BB00BB00BB00BB00BB0020
:1018F000BB00BB00BB00BB00BB00BB00BB00BB0010
:10190000BB00BB00BB00BB00BB00BB00BB00BB00FF
:10191000BB00BB00BB00BB00BB00BB00BB00BB00EF
:10192000BB00BB00BB00BB00BB00BB00BB00BB00DF
:10193000BB00BB00BB00BB00BB00BB00BB00BB00CF
:10194000BB00BB00BB00BB00BB00BB00BB00BB00BF
:10195000BB00BB00BB00BB00BB00BB004B01860053
:101960005A0133021C02DF00854B8649D3E900028D
:101970009047854B1C684CB1824D636820461B68BC
:101980002946984723681C68002CF6D17F4C636871
:101990000BB10D209847FFF713FF00F0DFFA7C4BE7
:1019A0001B68002B00F0CB8101207A4D0EF0BCFBB0
:1019B0002B78022B02D0053B032B08D80AF026FF18
:1019C0002B78022B01D0082B01D10EF0D9FD012379
:1019D0002B7070BD6F4D2B78022B02D0053B032B73
:1019E00008D80AF013FF2B78022B01D0082B01D165
:1019F0000EF0C6FD654B5B6803222A700BB1022016
:101A00009847614B1D6845B16B6828461B682146A5
:101A100098472B681D68002DF6D1594B2146D3E914
:101A20000002BDE8704010478278110602F00F03F3
:101A30004CBF594A524ADB001344D3E90002214605
:101A400090470028C5D0A0780207C2D00307C0D4B1
:101A5000BDE870400EF0EABF4C4B5B680BB108204C
:101A60009847494B1D68002DB3D06B6828461B680A
:101A7000214698472B681D68002DF6D1A9E7434BF6
:101A80005B680BB1092098473F4B1D68002DA0D023
:101A90006B6828461B68214698472B681D68002DF7
:101AA000F6D196E7394B5B680BB10A209847364B65
:101AB0001D68002D8DD06B6828461B68214698470D
:101AC0002B681D68002DF6D183E7304B5B680BB1A6
:101AD0000F2098472C4B1D68002D3FF47AAF6B68A0
:101AE00028461B68214698472B681D68002DF6D1B3
:101AF0006FE7284C2378062B00F0238103F0FD03C9
:101B0000052B7FF466AF0EF045FD0223237070BDF8
:101B1000204DFFF755FE0EF02FFB2B78022B02D045
:101B2000053B032B08D80AF071FE2B78022B01D05D
:101B3000082B01D10EF024FD134A146800232B70EA
:101B40004CB1164E636820461B683146984723689F
:101B50001C68002CF6D10A4B1049D3E900029047CB
:101B60000A4B5B680BB10E2098472B78022B03D0F1
:101B7000053B032B3FF62DAFBDE870400AF046BE93
:101B80001C0700209C1C06001807002004070020EA
:101B9000140700201107002064070020981C06008D
:101BA0008C4DFFF70DFE00F0CFF92B78022B07D0FC
:101BB0005A1F032A00F2E480082B01D00EF0EAFC41
:101BC000854B5B6802222A700BB101209847834B3A
:101BD0002146D3E900029047814B1D68002D3FF458
:101BE000F8AE6B6828461B68214698472B681D682D
:101BF000002DF6D1EDE6774D2B78082B00F097807D
:101C0000022B00F0CE80053B022B00F2C1800523A1
:101C10002B70714B5B680BB1032098476F4B2146CB
:101C2000D3E9000290476E4B1D68002D3FF4D1AE02
:101C30006B6828461B68214698472B681D68002D55
:101C4000F6D170BD644B5B680BB103209847634BC2
:101C50006449D3E900029047614B1C684CB1614D67
:101C6000636820461B682946984723681C68002C37
:101C7000F6D1584D2B78062B5ED0082B07D0022BBF
:101C800005D0053B032B00F28F800EF083FC02236E
:101C90002B7070BD4F4D2B78032B5BD00EF050FC9A
:101CA00000283FF496AE2B78022B00F08F805A1F4D
:101CB000032A00F28480082B00F0888006232B7012
:101CC00070BD444D2B78032B7FF483AE0EF04CFB9C
:101CD00000283FF47EAE2B78022B02D0053B032B6D
:101CE00008D80AF093FD2B78022B01D0082B01D1E4
:101CF0000EF046FC04232B7070BD364B1B78032B73
:101D000024D0082B22D0344B5B680BB100209847BD
:101D1000354B1D68002D3FF45CAE6B6828461B6890
:101D2000214698472B685D68002DF6D170BD0223CF
:101D30002B700EF039FC6CE707232B7070BD207AF6
:101D400033E60EF027FC0823237070BD2748FFF709
:101D50007DFDD8E70EF008FB00289FD02B78022BE2
:101D600002D0053B032B08D80AF050FD2B78022B3C
:101D700001D0082B01D10EF003FC04232B708DE75A
:101D80001B480AF00DFD2B78022B7FF415AF17E7E7
:101D900017480AF005FD2B78022B02D0082B7FF4A0
:101DA00036AF0EF0EDFB32E711480AF0F9FC2B7864
:101DB000022B3FF46CAF082B3FF469AF65E70C488A
:101DC0000AF0EEFC2B78022B7FF475AF0EF0D8FBF7
:101DD00074E700BF11070020040700201C07002043
:101DE00018070020901C060014070020941C060011
:101DF00048010020002070472DE9F04F4B6887B064
:101E00000C4602901546002B00F08C800EF00AFE66
:101E1000E368AB4228BF2B4681461E46002B00F0EC
:101E20008F804FF0000B5F464FF0010AD8460190BB
:101E30000395D4E90115B542A94628BFB1463846F5
:101E4000A6EB09064F44F1B1019B4A4618441AF02B
:101E500075F8A268E168C4F80480A2EB0902A1EB5E
:101E60000903A260E3602AB3002B08BF4FF0000A09
:101E7000002EDED1DDF80490029B5046C3E90097A6
:101E800007B0BDE8F08FA5B1019B1A1820464B465C
:101E900050F8101B4D686D68A847A268E168A2EB76
:101EA0000902A1EB0903A260E360EAB14FF0010B64
:101EB000DAE7E368BBF1000F16D1002B28D02168C8
:101EC000D9B1CDF8108003E0A36821680133A36085
:101ED0004A680123556804A80022A8470028F3D1C6
:101EE0002061002EA5D1C5E7226812681168216023
:101EF00093B14FF0010B0029E3D1DDF80490039D6D
:101F00006160002FB8D0BD4288BF4FF0000AB3E730
:101F1000DA46002E8DD1ADE79A464FF0010B002E28
:101F200087D1A7E70B681B68D3F80090B9F1000FC1
:101F30007FF46CAF8F68002F7FF468AFBA469BE7E1
:101F40001F464FF0010A97E708B50020FFF70AFB8C
:101F5000BDE808408020FFF705BB00BF08B50020A2
:101F6000FFF714FBBDE808408020FFF70FBB00BF60
:101F700070B5C38893421E4628BF1646934284B06C
:101F80000D4612D8002400200394CDE9015600F03C
:101F9000EFFB802001A9FFF74FFB044688B100202A
:101FA00000F0EEFB204604B070BD802014460EF019
:101FB00001FBB4FBF0F303FB1044B4FA84F46409AE
:101FC000E1E70EF0EDFD80280BD1094A094B92E8BC
:101FD000030083E80300002000F0D2FB204604B099
:101FE00070BD002000F0CCFB1024204604B070BD72
:101FF000C41C0600D00700202DE9F04F0B780E2BF3
:1020000087B000F285805BB3013B0D2B28D8DFE859
:1020100003F019142927364D272727271407647141
:10202000AA4B1A784AB1AA4900240A78A9481C7018
:1020300022F002020A70FFF709FC0025284607B0CB
:10204000BDE8F08FA14B1A78032A09D0A0490324D8
:102050000A78A0481C7022F002020A70FFF7F6FB13
:102060000625EBE79C48FDF76DF90028E5D09B4B72
:102070000122DA65BFF36F8FBFF34F8FDDE70523D2
:102080000DF101008DF80030954C0EF045FD9DF8E6
:1020900001300022226003F01F02032A00F21081A7
:1020A000DFE812F0E800BA0076006E00C878032876
:1020B0000C46D5D08A4E33681BB30022716832605B
:1020C00098470546F0B93368002B00F0FB80A378F1
:1020D000002BB2D10EF046FDAFE74FF080427B4BB4
:1020E000D2F838141A78C9071BD5022AA5D0784926
:1020F00002249AE7754B1A78012A9ED0744901246C
:1021000093E70E250EF042FD284607B0BDE8F08F9C
:10211000852BA5D16D4B1A78032AA1D16C490424D3
:1021200096E7012AEAD188E7062A00F09281082A78
:1021300000F0778122BB66496A4D09786A7011F018
:10214000020FBDF8071018BF032302290E4628BF4F
:10215000022602292B7000F2DB81CDE90356002014
:10216000059200F005FB802003A9FFF765FA0546FC
:10217000002800F04881002000F002FB062DC1D1AC
:102180006846FFF743FA0546002D00F09180B9E755
:102190009DF80500050707D06946FFF721FA0628D4
:1021A0000546F1D19DF8013013F0600F40F08880B2
:1021B0009DF80230454A9DF805501278012B00F039
:1021C000A880032B00F09780002B79D1052A02D03C
:1021D000290740F08E8028460EF06CFCBDF80730D1
:1021E000404D022B1E4628BF0226022B288000F2FB
:1021F000668100230020CDE90356059300F0B8FA6C
:10220000802003A9FFF718FA0546002800F0FB809C
:10221000002000F0B5FA75E79DF8050003A9FFF767
:10222000BDF90746002862D09DF80C106A46FFF7FA
:10223000D3F906280546A7D19DF8013013F0600FA9
:102240003ED1224A9DF80C1012789DF80260DD09FB
:1022500040F01D810B2E33D1052A4AD1BDF8033041
:10226000FF2B74D89DF803203846FFF70DFA05467A
:10227000F5B147E713F0600682D1DB099DF8022033
:102280007FF452AF032A64D0092A53D0012A7FF485
:1022900077AFBDF80330012B7FF472AFFFF75AF927
:1022A000002800F0F2800A4A137823F0020313702A
:1022B00023683BB10EF074FC00287FF4BEAE09E742
:1022C00006251FE70EF058FCB7E600BF1D080020EA
:1022D0001C080020B81C06001808002000700240EE
:1022E000D0070020D8070020284600F049FA102522
:1022F00008E7082506E72B07E2D4BDF80330002BDA
:10230000DED12F07DCD0052AF3D128460EF08EFB54
:10231000CEE72E07D4D4BDF80330002BD0D1280748
:10232000CED0052AE5D128460EF0E6FB28460EF071
:1023300089FBBDE7954D9DF803202B78043B012BCD
:10234000D7D8002A00F0D380012A00F0C4800725E6
:10235000D8E6BDF80330012B7FF412AFFFF7FAF88F
:10236000002800F092808A4A137843F00203137029
:102370009EE7BDF80730002BA4D0092B28BF092306
:102380009846FFF705F94FF009090546B8B1B3467D
:10239000CDF80CB0002700E001376A680123D2F8BD
:1023A00004A02946002203A8D0470028F4D12A68B7
:1023B0002B7A15683344B944DEB2002DE8D1754D4F
:1023C00075494246284619F0B9FD2E71A5F80290CC
:1023D000FFF7C0F818B1EB7943F02003EB71FFF77A
:1023E000D7F86E4B1860BDF80720DA600020C3E90B
:1023F000015800F0BDF96A498020FFF731F9054620
:1024000000287FF4B8AE0EF0CBFB80287FF46CAFD1
:10241000644B93E8030084E80300284600F0B0F919
:1024200046E75A4A1278052A03D0042A7FF4A8AE58
:102430003346BDF80720574D012A164628BF01260E
:10244000012A2B7070D80023CDE903560020059394
:1024500087E69DF80430022B8BD0032B71D0012B23
:102460007FF48EAEBDF80730002B3FF42BAF4E4902
:1024700012220DF10100FFF77BFD0546062D3FF40A
:102480007FAE002D3FF414AF3CE60F253AE6002E58
:102490006DD00A2E7FF414AF052A7FF42AAF384698
:1024A000FFF72CF93B4903462A460DF101000B705A
:1024B000FFF75EFD0546002D3FF4FAAE22E68020D0
:1024C0000EF078F80223B3FBF0F300FB03F39A1E3F
:1024D000534253418EE6FFF717F92B78052B3FF453
:1024E000E7AE052331482B70FFF7B0F9E0E6FFF7C0
:1024F00067F92B78042B3FF4DBAE254A2B48137881
:10250000042123F0020329701370FFF79FF9CFE62F
:1025100080200EF04FF80223B3FBF0F303FB00F230
:10252000971E7A427A4118E680200EF043F8012384
:10253000B3FBF0F300FB03F3C3F1010383F00103EA
:1025400082E7BDF80730002B3FF4BCAEBDF80510A4
:102550009DF8030000F0A2F8014600283FF410AEF9
:1025600002780DF10100FFF703FD054686E7052A15
:102570007FF4BFAE074902220DF101000E80FFF784
:10258000F7FC0546002D3FF493AEBBE51D08002087
:102590001C080020D8070020F01C0600AC07002013
:1025A000BC1C0600C41C0600FC1C0600B81C06006F
:1025B00038B505460C460EF0F3FAA84207D194E868
:1025C0000300044A002382E80300184638BD1023A4
:1025D000184638BDD007002008B1402303600148E9
:1025E000704700BFD807002000B54FF0805287B079
:1025F000D2F8A830D2F8A41000916FEA83436FEAB2
:102600009343244A9BB20D2102A818F02DFB02A887
:1026100019F07DFBD0B3204B9DF808201A700128DB
:1026200034D09DF809205A7002282FD09DF80A2036
:102630009A7003282AD09DF80B20DA70042825D040
:102640009DF80C201A71052820D09DF80D205A7194
:1026500006281BD09DF80E209A71072816D09DF8E9
:102660000F20DA71082811D09DF810201A7209285D
:102670000CD09DF811205A720A2807D09DF812201C
:102680009A720C2804BF9DF81320DA7207B05DF827
:1026900004FB00BF101D06002008002090B3012895
:1026A00009D0022807D0032805D0042803D0052824
:1026B00001D000207047174B03EB4003587828B334
:1026C000154B10B553F82040F4B123780BB9A01C7A
:1026D00010BD0020FFF780FF2178C1B12246C4F170
:1026E000010C02EB0C03DCB2234620F8141012F8A4
:1026F000011F0029F5D101335B00DBB243F44073C5
:10270000038010BD05487047204610BD704740F259
:102710000233F5E7D044060064440600CA440600CC
:1027200000B585B00346002101AA44F20100CDE9BD
:102730000111039300F004F805B05DF804FB00BF3D
:1027400072B6094BD3F8F030DB0700D500BEBFF3FB
:102750004F8F0549054BCA6802F4E0621343CB6012
:10276000BFF34F8F00BFFDE700ED00E00400FA0566
:1027700072B6024A136801331360704730080020B4
:10278000034A1368013B136003B962B6704700BF88
:1027900030080020A02383F31188FEE710B44FF027
:1027A0008073064C40F8043C6FF0020340E903419B
:1027B00040E909325DF8044B443870479527020020
:1027C0000F4C08B5E02384F8223000F075F80D4B6B
:1027D00000221A60D4F888300B4A43F47003C4F81E
:1027E0008830536B43F040435363236943F0100335
:1027F000236100F0F3F8A02383F31188FEE700BF04
:1028000000ED00E03408002000EF00E0A02383F397
:102810001188024A1368013313607047340800209E
:10282000034A1368013B13600BB983F311887047A7
:102830003408002070B51E4B0022C3F8402182B03E
:10284000D3F8401101910199EFF31186A02181F392
:102850001188D3F80445C3F80021D3F80031009360
:10286000009B01F05DFB201A20F07F4323F0010361
:1028700020F07F459BB96C1E6DB1002501F064FB13
:1028800023460543013C002BF8D125B1094B4FF0FD
:1028900080525A6040BF86F3118802B070BD02F0CA
:1028A00027F80228E7D001F04FFB0546EDE700BF0F
:1028B0000010014000ED00E010B5002009F03AFFE3
:1028C000094B0A4901222024C3F808450220C3F815
:1028D00004239A601A60E022C3F8440381F81123AC
:1028E0004FF400330B6010BD0010014000E100E028
:1028F00070B5054684B072B6354CD4F8046501F065
:10290000DBFF002846D0334BAB4228BF2B469C460A
:10291000F31823F07F430122C4F80823C4F840359C
:102920000023C4F84031D4F840310193019B4FF4A7
:102930008033C4F80433BFF34F8F75B3264A20BFEA
:10294000D2F80031D2F804110B43F8D0204B4FF4E9
:102950008031C3F808130021C3F84011D3F84001B7
:1029600003900398C3F80011D3F8001102910121DC
:102970000298C3F80413D3F80405801B20F07F40AD
:1029800060454FF4003328BF6046C2F8803108B17B
:1029900001F0D2FA62B604B070BDC4F80833C4F8CE
:1029A0004051D4F840310393039BC4F80051D4F84C
:1029B00000310293084B0299C4F804234FF400310C
:1029C000D4F80425C3F8801162B604B070BD00BF0E
:1029D00000100140FDFFFF0000E100E00548006835
:1029E00080F3088862B661B6BFF34F8FBFF36F8F75
:1029F00000DF00BF00000000064B19680868B0E85F
:102A0000F04F80F30988BFF36F8F4FF0000080F321
:102A100011887047B8D10020EFF30980BFF36F8FA2
:102A2000144B1A681EF0100F08BF20ED108A20E921
:102A3000F04F10604DF8043D4FF0A00080F3118876
:102A4000BFF34F8FBFF36F8F01F0AAFD4FF000006F
:102A500080F3118808BC19680868B0E8F04F1EF0D0
:102A6000100F08BFB0EC108A80F30988BFF36F8F96
:102A7000704700BFB8D100202DE9F047044601F0AF
:102A800047FA484A1668002E3ED0474B1F683C4222
:102A900034D1A4B304F1080563071CBF25F0070572
:102AA00008355DB3DFF814E1DEF800C0AC4525D38E
:102AB0003E48036803E01A6822B118461346596875
:102AC000A942F8D3B34219D01C464A1B54F8088BCC
:102AD000C0F80080102A35D835480568ACEB0102F3
:102AE0000F430021AA42C3E90017CEF8002038BFE7
:102AF000026001F0BDFA2046BDE8F087002401F035
:102B0000B7FA2046BDE8F0872A4B2B4E2748264DC2
:102B1000590718BF073326F0070618BF23F007032D
:102B20001660234A03601946F31A1360234A4FF0D4
:102B300000471360002242602F60C6E90022C1E90D
:102B40000063A4E758194260184A5D609046126815
:102B50009042FBD8D8F80410D0F8049008EB010A92
:102B600050450AD000EB09018A4210D00260294684
:102B7000804518BFC8F80000AEE7894408EB09019A
:102B80008A42C8F8049001D05968A5E74046B2428D
:102B90001CBF5168126802601CBF494441605968FB
:102BA000E6E700BF4408002038080020480800205D
:102BB0003C0800205008002048D000204008002099
:102BC00058B1234A38B5126850F8043C1342044601
:102BD00002D050F8081C09B138BD704723EA02033F
:102BE00040F8043CA0F1080501F092F9194854F8A6
:102BF000041C0268184B0A4402601A461B689D4276
:102C0000FBD8506802EB000C65450BD06818834276
:102C100018D044F8083CAA4218BF1560BDE83840F7
:102C200001F026BA0144501883425160F6D10B4896
:102C300000688342F2D01546D3E900400144C5E95B
:102C40000041E8E7054800688342F5D1E1E700BFAD
:102C500038080020400800204808002044080020D0
:102C6000014B1868704700BF40080020014B1868EE
:102C7000704700BF3C08002000F108034FF0FF310F
:102C80000022C0E90131C0E903330260704700BF90
:102C900000230361704700BF4268036810B4946862
:102CA0000133C1E90124616091605DF8044B086162
:102CB0000360704730B40D686B1C10D000F108033E
:102CC0001C465B681A68AA42FAD902684B60013256
:102CD00099608C606160086130BC02607047046973
:102CE0006368F2E7036910B4D0E901125C688A6096
:102CF0008442516008BF5A601A685DF8044B002195
:102D0000013A01611A601868704700BFF8B50746BC
:102D100000FB01F050300D461646FFF7ADFE0446AD
:102D200028B335B300F150032360C4E90F75FFF7F2
:102D30006DFDD4E90F13226803FB01F1CB1A114496
:102D4000616000211344A163FF2184F84410C4E9A9
:102D5000022384F8451004F11000FFF78DFF04F101
:102D60002400FFF789FFFFF75BFD84F84C602046E5
:102D7000F8BD0346D8E700BFF8B5064650200D461B
:102D8000FFF77AFE044620B300272060C0E90F67F2
:102D9000FFF73CFDD4E90F312268A26001FB03F389
:102DA000591A134463600A44FF23A763E26084F85E
:102DB000443004F1100084F84530FFF75DFF04F162
:102DC0002400FFF759FFFFF72BFD022384F84C3056
:102DD000A5632046F8BD00BF2DE9F047044684B046
:102DE0001F4601928846FFF711FDA26BE36B9A42E2
:102DF0007ED3022F00F0F480DFF82C93002304F13F
:102E00002406019A002A00F0078102AD002B00F091
:102E1000E380FFF705FD01F07BF8FFF7F7FC94F87E
:102E20004430FF2B04BF002384F8443094F845302D
:102E3000FF2B04BF002384F84530FFF7F1FC01A904
:102E4000284601F003FD002840F0EC80FFF7DEFC8F
:102E5000A26BE36B9A426BD0FFF7E2FCFFF7D6FC64
:102E600094F8452055B2002D04DC11E06A1ED3B25F
:102E700055B26BB1636A304653B101F08DFC002846
:102E8000F4D001F013FD6A1ED3B255B2002BF1D17C
:102E9000FF2384F84530FFF7C3FCFFF7B7FC94F835
:102EA000442055B2002D14DD04F1100A03E06A1E1F
:102EB000D3B255B26BB12369504653B101F06CFCEB
:102EC0000028F4D001F0F2FC6A1ED3B255B2002BF8
:102ED000F1D1FF2384F84430FFF7A2FC01F0C8F8D9
:102EE000FFF794FCA26BE16B91424FF0010388D98C
:102EF000226CA56B002A77D0002F40F0FC80414661
:102F0000A06819F01BF8A368216C62680B44934217
:102F1000A36005F101056BD3A563636A2268A26013
:102F2000002B69D1FFF77CFC012004B0BDE8F087DD
:102F300004F1100AFFF774FC0199504601F0B0FB50
:102F4000FFF764FC94F845305DB2002D04DC11E01D
:102F50006B1EDAB25DB26AB1636A304653B101F0FA
:102F60001BFC0028F4D001F0A1FC6B1EDAB25DB2AC
:102F7000002AF1D1FF2384F84530FFF751FCFFF719
:102F800045FC94F844305DB2002D04DC11E06B1E6A
:102F9000DAB25DB26AB12369504653B101F0FCFB6D
:102FA0000028F4D001F082FC6B1EDAB25DB2002A78
:102FB000F1D1FF2384F84430FFF732FC01F058F8D8
:102FC00000288DD14FF08053C9F8043040BFBFF3C3
:102FD0004F8FBFF36F8F83E7284601F02BFC18E774
:102FE000226CA56B002A62D126680135002E77D0AD
:102FF000A563636A002B95D004F1240001F0CCFB9B
:1030000000288FD0484B4FF080525A6040BFBFF32A
:103010004F8FBFF36F8F85E7FFF702FC002004B0EE
:10302000BDE8F087FFF7F2FB94F845305DB2002D64
:1030300014DD04F1240603E06B1EDAB25DB26AB15E
:10304000636A304653B101F0A7FB0028F4D001F0C9
:103050002DFC6B1EDAB25DB2002AF1D1FF2384F899
:103060004530FFF7DDFBFFF7D1FB94F844305DB24C
:10307000002D14DD04F1100603E06B1EDAB25DB220
:103080006AB12369304653B101F086FB0028F4D0C1
:1030900001F00CFC6B1EDAB25DB2002AF1D1FF2305
:1030A00084F84430FFF7BCFB00F0E2FFB6E741468E
:1030B000E06818F043FF226CE36821689B1A8B429A
:1030C000E360C2F1000202D263681344E360002DA2
:1030D0008ED10123A363636A002B3FF423AF8BE7F8
:1030E000606801F055FCA563626A6660002A83D1BE
:1030F000002887D116E74146E06818F01FFF226CD0
:10310000E36851429B1A2268E360934208D3022F7E
:10311000DDD00135A563636A002B3FF403AF6BE795
:1031200063680B44E360F2E700ED00E070B506462B
:103130005020FFF7A1FC044660B300250123206066
:10314000C0E90F35FFF762FB216CE36B2268A260D8
:1031500001FB03F3591A134463600A44FF23E2603E
:10316000A56304F1100084F8443084F84530FFF77B
:1031700083FD04F12400FFF77FFDFFF751FBC4E955
:10318000005584F84C60E5602B462A4629462046C7
:10319000FFF722FE204670BD2DE9F041044682B0C3
:1031A0009046EFF31187A02080F31188A56BE06BA8
:1031B00085421AD3022B05D0002087F3118802B074
:1031C000BDE8F08194F84550226CA66B6DB222BB2D
:1031D00023680136002B43D06B1CA66330D0013529
:1031E0006DB284F845500120E7E794F84550226C11
:1031F000A66B6DB2002AEBD0002B38D1A06818F076
:103200009DFEA368226C13446268A360934206F19A
:103210000106E1D32368A360DEE7E06818F08EFEC4
:10322000226CE36821689B1A8B42E360C2F10002C2
:1032300002D263681344E360012E38BF0126CBE756
:10324000636A002BCFD004F1240001F0A5FA002816
:10325000C9D0B8F1000FC6D00123C8F80030C2E7CA
:103260006068019301F094FB019B6360B4E7E06840
:10327000019318F063FE216CE2682068019B521AEA
:103280008242E260C1F1000103D3022BD4D00136A7
:10329000A2E762680A44E260F7E700BF10B582B0B7
:1032A000EFF31184A02383F31188836BC26B9A42DE
:1032B0000CD990F845200133FF2A836353B20AD01A
:1032C00001335BB280F84530012000E0002084F338
:1032D000118802B010BD436A002BF5D02430019153
:1032E00001F05AFA0028EFD001990029ECD001230F
:1032F0000B60E9E72DE9F043044685B0884601926A
:10330000FFF784FAA56B002D40F01E81019B002B76
:1033100000F0CD8002A801F08DFA2F4604F12406BA
:10332000FFF77EFA00F0F4FDFFF770FA94F84430EE
:10333000FF2B08BF84F8447094F84530FF2B08BF7A
:1033400084F84570FFF76CFA01A902A801F07EFA33
:1033500000285BD1FFF75AFAA36B002B40F0AD8039
:1033600004F12409FFF75CFA0199484601F098F945
:10337000FFF74CFA94F845305DB2002D04DC11E003
:103380006B1EDAB25DB26AB1636A484653B101F0AE
:1033900003FA0028F4D001F089FA6B1EDAB25DB2AC
:1033A000002AF1D1FF2384F84530FFF739FAFFF7FF
:1033B0002DFA94F844305DB2002D14DD04F11009AB
:1033C00003E06B1EDAB25DB26AB12369484653B1BD
:1033D00001F0E2F90028F4D001F068FA6B1EDAB2CD
:1033E0005DB2002AF1D1FF2384F84430FFF718FAC8
:1033F00000F03EFE002851D1674B4FF080525A60DA
:1034000040BFBFF34F8FBFF36F8F47E0FFF7FEF969
:1034100094F845305DB2002D04DC11E06B1EDAB289
:103420005DB26AB1636A304653B101F0B5F9002864
:10343000F4D001F03BFA6B1EDAB25DB2002AF1D192
:10344000FF2384F84530FFF7EBF9FFF7DFF994F835
:1034500044305DB2002D14DD04F1100903E06B1E51
:10346000DAB25DB26AB12369484653B101F094F90A
:103470000028F4D001F01AFA6B1EDAB25DB2002A0D
:10348000F1D1FF2384F84430FFF7CAF900F0F0FDD2
:10349000FFF7BCF9A36B53B1FFF7C2F9FFF7B6F919
:1034A000A56B002D50D1019B002B7FF439AFFFF7A6
:1034B000B7F9002005B0BDE8F083FFF7B1F9FFF7D9
:1034C000A5F994F845305DB2002D14DD04F124090E
:1034D00003E06B1EDAB25DB26AB1636A484653B16B
:1034E00001F05AF90028F4D001F0E0F96B1EDAB2CD
:1034F0005DB2002AF1D1FF2384F84530FFF790F93F
:10350000FFF784F994F844305DB2002D14DD04F126
:10351000100903E06B1EDAB25DB26AB12369484656
:1035200053B101F039F90028F4D001F0BFF96B1E56
:10353000DAB25DB2002AF1D1FF2384F84430FFF7FC
:103540006FF900F095FDA9E7226C52B1E16863685C
:1035500011449942E16024BF2168E160404618F0BF
:10356000EDFC013DA56323692BB9FFF759F9012053
:1035700005B0BDE8F08304F1100001F00DF900285A
:10358000F3D0054B4FF080525A6040BFBFF34F8FCE
:10359000BFF36F8FE9E700BF00ED00E02DE9F041D8
:1035A000044684B000F124060191FFF72FF9A36BC4
:1035B00000273D46002B40F0DE80019B002B00F0F1
:1035C0003681002D00F0CA80FFF72AF900F0A0FC38
:1035D000FFF71CF994F84430FF2B04BF002384F854
:1035E000443094F84530FF2B04BF002384F8453065
:1035F000FFF716F901A902A801F028F900285FD108
:10360000FFF704F9A36B002B40F0C380FFF708F924
:103610002368002B00F0168104F12408019940462C
:1036200001F03EF8FFF7F2F894F845305DB2002D56
:1036300004DC11E06B1EDAB25DB26AB1636A404627
:1036400053B101F0A9F80028F4D001F02FF96B1E56
:10365000DAB25DB2002AF1D1FF2384F84530FFF7DA
:10366000DFF8FFF7D3F894F844305DB2002D14DD95
:1036700004F1100803E06B1EDAB25DB26AB123698F
:10368000404653B101F088F80028F4D001F00EF95B
:103690006B1EDAB25DB2002AF1D1FF2384F8443008
:1036A000FFF7BEF800F0E4FC00285DD1744B4FF04A
:1036B00080525A6040BFBFF34F8FBFF36F8F53E00C
:1036C000FFF7A4F894F845305DB2002D04DC11E05A
:1036D0006B1EDAB25DB26AB1636A304653B101F073
:1036E0005BF80028F4D001F0E1F86B1EDAB25DB2AD
:1036F000002AF1D1FF2384F84530FFF791F8FFF756
:1037000085F894F844305DB2002D14DD04F1100802
:1037100003E06B1EDAB25DB26AB12369404653B171
:1037200001F03AF80028F4D001F0C0F86B1EDAB2CC
:103730005DB2002AF1D1FF2384F84430FFF770F81E
:1037400000F096FCFFF762F8A36B5BB9FFF768F82F
:10375000002F65D1002004B0BDE8F08102A801F07F
:1037600069F831E7FFF75CF8FFF750F8A36B012524
:10377000002B3FF422AF2268013BA363002A7AD0DA
:103780002369002B67D1FFF74BF8012004B0BDE897
:10379000F081FFF745F8FFF739F894F845305DB24E
:1037A000002D14DD04F1240803E06B1EDAB25DB2D3
:1037B0006AB1636A404653B100F0EEFF0028F4D0CE
:1037C00001F074F86B1EDAB25DB2002AF1D1FF236A
:1037D00084F84530FFF724F8FFF718F894F84430E0
:1037E0005DB2002D14DD04F1100803E06B1EDAB2A7
:1037F0005DB26AB12369404653B100F0CDFF0028A5
:10380000F4D001F053F86B1EDAB25DB2002AF1D1A8
:10381000FF2384F84430FFF703F800F029FCA3E706
:10382000FEF7F4FF616A29B9606801F0DDF8FEF780
:10383000F7FF8FE7236B60681968C1F1070101F09A
:10384000D3F8F4E7FEF7E2FF606801F061F807469D
:10385000FEF7E6FFE0E604F1100000F09DFF00280F
:1038600091D0074B4FF080525A6040BFBFF34F8F4B
:10387000BFF36F8F87E701F0EDF8606080E700BF6E
:1038800000ED00E02DE9F0410446EFF31188A0239C
:1038900083F31188856B25B9284688F31188BDE824
:1038A000F08190F844701646026C7FB24AB9013D2F
:1038B0007B1CA56314D001377FB284F844700120CB
:1038C000EBE70846E168636811449942E16024BF70
:1038D0002168E16018F032FB013D7B1CA563EAD151
:1038E0002369002BEBD004F1100000F055FF0028F5
:1038F000E5D0002EE3D001233360E0E700000000B4
:103900001B4B5A68904218D0DA6890421ED05A6910
:1039100090421DD0DA6990421CD05A6A90421BD066
:10392000DA6A90421AD05A6B904219D0DA6B904200
:1039300008BF072202D0FFF743B900229FED0A7BA0
:1039400003EBC20383ED007BFFF73AB90122F5E7F1
:103950000222F3E70322F1E70422EFE70522EDE775
:103960000622EBE7AFF3008000000000000000003B
:1039700050D00020124B1A687AB19A6862B11A6965
:1039800092B19A6992B11A6A92B19A6A92B11A6B1B
:1039900092B19A6B92B17047012203EBC20C43F8CB
:1039A0003210CCF8040070470222F6E70322F4E755
:1039B0000422F2E70522F0E70622EEE70722ECE711
:1039C00050D0002070B505460E461446FEF71EFF87
:1039D00095F84430FF2B04BF002385F8443095F858
:1039E0004530FF2B04BF002385F84530FEF718FF54
:1039F000AB6B002B43D0FEF709FF95F845305CB266
:103A0000002C14DD05F1240603E0631EDAB25CB27B
:103A10006AB16B6A304653B100F0BEFE0028F4D0A4
:103A200000F044FF631EDAB25CB2002AF1D1FF233A
:103A300085F84530FEF7F4FEFEF7E8FE95F84430D1
:103A40005CB2002C14DD05F1100603E0631EDAB24F
:103A50005CB26AB12B69304653B100F09DFE00287C
:103A6000F4D000F023FF631EDAB25CB2002AF1D179
:103A7000FF2385F84430BDE87040FEF7D1BE2246F2
:103A8000314605F1240000F047FEB4E72DE9F04788
:103A90009600804630460D469946FEF7EDFF002819
:103AA00000F09C8007465820FEF7E6FF04460028F9
:103AB00000F09180076332463846A52118F070FA6D
:103AC000276B2B7884F83430043E374427F00707FF
:103AD00033B36B7884F8353013B3AB7884F8363071
:103AE000F3B1EB7884F83730D3B12B7984F83830E0
:103AF000B3B16B7984F8393093B1AB7984F83A304B
:103B000073B1EB7984F83B3053B12B7A84F83C30B5
:103B100033B16B7A84F83D3013B1AB7A84F83E3020
:103B2000089D062D28BF06254FF0000A261DE562D8
:103B3000A564304684F83FA0C4F84CA0FFF7A8F86D
:103B4000C5F1070504F11800FFF7A2F8C4F850A06A
:103B5000A56184F854A0246164624A46414638460F
:103B6000FEF71CFE099B206003B11C60FEF74EFEB1
:103B7000364A374D1368013313602B68002B37D05A
:103B8000344FE06A3B686BB3DFF8F080324A334968
:103B900013680133136023640B68834238BF0860E5
:103BA00000EB800008EB80003146FFF775F8FEF768
:103BB00037FE3B686BB12A68E36AD26A9A4208D240
:103BC000274B4FF080525A6040BFBFF34F8FBFF377
:103BD0006F8F012004E03846FEF7F2FF4FF0FF3010
:103BE000BDE8F0872B68DB6A834298BF2C60CBE787
:103BF0002C601368012B04D0E06ADFF88080154F39
:103C0000C4E7DFF87880474608F18C093846143756
:103C1000FFF732F8B945F9D1DFF86490114F484603
:103C2000FFF72AF83846FFF727F80F48FFF724F880
:103C30000E48FFF721F80E48FFF71EF80D4BE06A1B
:103C4000C3F800900C4B1F60024F9FE7B8D00020D4
:103C5000B8D10020ACD000209CD00020B0D00020F3
:103C600000ED00E004D10020E8D00020D4D00020F6
:103C7000BCD0002000D10020FCD000202CD100209E
:103C800018D1002070B50446264DFEF7BFFD002C6C
:103C90003BD0261D3046FFF725F8A36A1BB104F17F
:103CA0001800FFF71FF8204A1368013313602B68D0
:103CB000A34221D01D4A206B1368013B1360FEF71D
:103CC0007FFF2046FEF77CFF194B1A68126872B11D
:103CD0001A68184BD268D26852681A60FEF7A0FDC5
:103CE000154B1B6813B12B68A34210D070BD114B4C
:103CF0004FF0FF321A60F1E710483146FEF7CCFF73
:103D00000F4A136801331360E8E72C68C1E70D4BD5
:103D10004FF080525A6040BFBFF34F8FBFF36F8F99
:103D200070BD00BFB8D100209CD00020B8D00020CA
:103D300000D1002098D00020ACD00020D4D00020AA
:103D4000D0D0002000ED00E02DE9F8434FF40070E2
:103D5000FEF792FE00286AD005465820FEF78CFE3A
:103D60000446002865D04FF40072A521056328465B
:103D700018F016F90025534B266B6363271DC4E921
:103D8000125584F8385084F83F50E5623846FEF703
:103D90007FFF06F5FE7604F11800FEF779FF26F0A6
:103DA000070607232A4625654749A36184F854502E
:103DB000246164623046FEF7F1FC444B20601C60D5
:103DC000FEF724FD424A434D1368013313602B680C
:103DD000002B39D0404EE06A33687BB3DFF828818E
:103DE0003E4A3F4913680133136023640B688342E2
:103DF00038BF086000EB800008EB80003946FEF712
:103E00004BFFFEF70DFD33686BB12A68E36AD26A97
:103E10009A4208D2334B4FF080525A6040BFBFF3F2
:103E20004F8FBFF36F8F01F0B7F8012815D0BDE8B1
:103E3000F8832846BDE8F843FEF7C2BE2B68DB6A6C
:103E4000834298BF2C60C9E72C601368012B13D004
:103E5000E06ADFF8B480204EC2E7A02383F3118824
:103E6000214A224B4FF0FF311160002230601A606E
:103E7000BDE8F843FEF7A4BCDFF88C80464608F1A5
:103E80008C0930461436FEF7F7FE4E45F9D1DFF8BF
:103E90007C90174E4846FEF7EFFE3046FEF7ECFEEC
:103EA0001448FEF7E9FE1448FEF7E6FE1348FEF755
:103EB000E3FE134BE06AC3F80090124B1E60064EFF
:103EC0008EE700BF49444C451942020094D00020BF
:103ED000B8D00020B8D10020ACD000209CD0002069
:103EE000B0D0002000ED00E098D00020B4D0002039
:103EF00004D10020E8D00020D4D00020BCD0002085
:103F000000D10020FCD000202CD1002018D10020AE
:103F1000024A136801331360704700BF90D000203D
:103F2000014B1868704700BFB4D00020014B1868DF
:103F3000704700BFB8D00020024A136803441360E2
:103F4000704700BFB4D000202DE9F04F3D4B1B68F7
:103F500083B0002B4CD13C4B1E6801361E60002EF6
:103F60004CD03A4B01931B68B34245D8384F3B685D
:103F70001D68002D60D0DFF8EC80DFF8ECA0DFF8E2
:103F8000EC90002520E0FEF7ADFEA36A04F11800D6
:103F90000BB1FEF7A7FEE36AD8F8002003EB83001D
:103FA000934259460AEB800088BFC8F80030FEF7FC
:103FB00073FED9F800203B68E16AD26A1B6891421F
:103FC00028BF0125002B37D03B68DB68DC686368BD
:103FD00004F1040B9E425846D5D2019A13601D4B42
:103FE0001B68002B0CBF2846012003B0BDE8F08FF2
:103FF000194A1368013313600025F0E7144B174A80
:10400000186811681960164910600A6801320A6060
:104010001A6812683AB90D4B01931A464FF0FF33F4
:10402000136013469FE71B68084ADB680192DB6850
:104030005B681360134696E7019A4FF0FF331360F5
:10404000CDE700BF90D00020B4D0002098D0002051
:1040500000D10020A4D00020A8D00020FCD0002057
:10406000A0D00020B0D000202CD10020B8D100205A
:104070002DE9F84FFEF7CAFB3B4B1A68013A1A606C
:104080001B68002B59D1394B1B68002B55D0384D7C
:104090002B68002B64D0374EDFF8F080364FDFF806
:1040A000F0904FF0010AEB68DC6804F1040B04F1B6
:1040B0001800FEF717FE5846FEF714FEE36A326852
:1040C00003EB83009342594608EB800088BF3360BE
:1040D000FEF7E2FD3B68E26ADB6A9A4233D3C9F835
:1040E00000A02B68002BDED1244B1A681268002A2E
:1040F00031D01A68224BD268D26852681A60214EB9
:10410000346844B10125FFF71FFF08B1C9F800501A
:10411000013CF8D13460D9F8003073B11A4B4FF03C
:1041200080525A6040BFBFF34F8FBFF36F8F01249F
:10413000FEF776FB2046BDE8F88F0024FEF770FB03
:104140002046BDE8F88F2B68002BACD10B4B1A68CA
:104150001268002ACDD10A4B4FF0FF321A60CEE729
:10416000DFF82C90CBE700BF90D00020B8D0002023
:10417000E8D00020B0D00020B8D1002000D100202D
:1041800098D00020A8D0002000ED00E02CD1002025
:10419000A4D0002070B548B9184B4FF080525A6037
:1041A00040BFBFF34F8FBFF36F8F70BD144A1549E7
:1041B0001368154D013313600E68044628680430F7
:1041C000FEF790FD2B68A4195C600FD20F4B1868A6
:1041D00029680431FEF76EFD0D4B1A68944238BF12
:1041E0001C60FFF745FF0028D6D070BD094B18684A
:1041F00029680431FEF75EFDF3E700BF00ED00E043
:1042000090D00020B4D00020B8D1002000D10020F0
:1042100098D00020FCD000202DE9F84F384D394FC0
:10422000394EDFF8F480DFF8F4A0DFF8F490DFF81F
:10423000F4B014E0FEF7EAFAFB68DC68201DFEF734
:1042400051FD3368013B33602B68013B2B60FEF767
:10425000E7FA206BFEF7B4FC2046FEF7B1FC2B68B2
:10426000002BE7D1D8F80030012B08D94FF080534C
:10427000CBF8043040BFBFF34F8FBFF36F8FFAF717
:1042800099FFDAF80030FBB9D9F80030DB6A002B6F
:10429000E5D1D8F80030012BE1D81C4B1C4A1B6833
:1042A00012689B1A012BDAD91A4A1368013313607A
:1042B000DAF8003083B1D9F80030DB6A0BB9D8F8EE
:1042C0000030FFF7D5FECAE7D9F80030DB6A002BD3
:1042D000C5D1D8F80030C2E7D9F80030DB6A002B2E
:1042E000EFD1D8F80030012BEBD8084B1868084BF9
:1042F0001B68C01A0128E4D9FEF7FAFAE1E700BF0B
:10430000D0D00020D4D00020B8D0002098D00020F9
:10431000B4D0002090D000202CD10020B0D00020BC
:10432000B8D1002000ED00E04B685B682DE9F04F4C
:1043300001F10808434508BFCB68DFF8D8909346E1
:104340000027DA6883B00E460446BA465B6873609D
:10435000984504BFD8F804307360DD68002D40D064
:104360002B46D86A2061186C2360196BA060986C8A
:10437000606103F134006060D9F800008342C4E951
:1043800006A131D0BBF1030F84F80CB011D1986AAB
:1043900000931F4B01920028186800F1010018607B
:1043A0000CBF032002202073FFF762FE009B019ADE
:1043B000196B0B78A52B1CD10B469E4613F8010FE9
:1043C000A528FAD0C1F1010CF444CCF38F0CAA4219
:1043D000A4F820C007F1010704F1240413D0736886
:1043E000B4E7D9F80030BCE784F80CA00B78A52B13
:1043F000E2D04FF0000CAA42A4F820C007F1010758
:1044000004F12404EBD1384603B0BDE8F08F00BFBF
:1044100090D00020B8D100202DE9F04F584C2368EF
:1044200001332360574B1B688B4285B000F2A0809C
:10443000DFF864E1DFF86481039014460026072367
:10444000AEF1800BB2461A463146A146013A02EB64
:1044500082035BF82330002B47D05EF8043C5E6893
:10446000039B764508BFDEF8046001EBC100CDE98F
:10447000012103EB8000F3684FF0000C76684EF8E2
:10448000046C764504BF76684EF8046CF768002F1C
:1044900069D03A46D16A02600161D8F80010156C03
:1044A000146B8560511A956CC46118BF01213432B8
:1044B000456101734260C0F818A02278A52A55D141
:1044C0002246154612F8011FA529FAD0C4F10104AD
:1044D0002C44C4F38F04BB4204840CF1010C00F1A2
:1044E0002400CBD1DDE901216144AEF1140E002A94
:1044F000ACD1254B039D01EBC1000E4619680B683A
:104500004C4605EB80003BB10222FFF70DFF06444D
:1045100006EBC60005EB80001C4B19680B683BB12D
:104520000222FFF701FF064406EBC60005EB800000
:1045300017490B683BB10422FFF7F6FE064406EB71
:10454000C60005EB800013490B681BB10322FFF77F
:10455000EBFE06446CB100232360FFF789FD304673
:1045600005B0BDE8F08FD8F8002093E70024B2E74B
:104570000026FFF77DFD304605B0BDE8F08F00BF97
:1045800090D00020B8D0002000D10020FCD0002026
:10459000D4D00020BCD00020ACD10020B8D1002065
:1045A0003A4B1B681BB13A4B01221A607047384ADC
:1045B000384830B513600268374B02EB820C4FEA83
:1045C0008C0C910053F80C40002C46D102F1FF3CBA
:1045D0000CEB8C0E4FEA8E0E4FEA8C0153F80E4016
:1045E000002C51D1A2F1020C0CEB8C0E4FEA8E0E76
:1045F0004FEA8C0153F80E40002C45D1A2F1030C78
:104600000CEB8C0E4FEA8E0E4FEA8C0153F80E40E5
:10461000002C39D1A2F1040C0CEB8C0E4FEA8E0E5B
:104620004FEA8C0153F80E4074BB541F04EB840C0A
:104630004FEA8C0CA10053F80C501DBB941F04EBE7
:10464000840C4FEA8C0CA10053F80C50D5B9073AF2
:1046500002EB8204A40091001C59114403EB810C6D
:104660006346DCF804104968CCF80410083399421A
:1046700008BF4968094B08BFCCF80410C968196025
:10468000026030BD2246E8E76246E6E790D00020AF
:10469000A4D00020B0D000202CD10020B8D1002020
:1046A00070B5174D2B680C4603F11801FEF702FB9D
:1046B000144B1E6828680430FEF714FB631C17D0E7
:1046C0002B68A4195C6007D30F4B18682968BDE8F4
:1046D00070400431FEF7EEBA0C4B186829680431BB
:1046E000FEF7E8FA0A4B1A68944238BF1C6070BDA6
:1046F00029680848BDE870400431FEF7CDBA00BF14
:10470000B8D10020B4D00020FCD0002000D100207F
:1047100098D00020BCD0002070B5194D0C462968F7
:1047200016461831FEF7B8FA164B5EB11B682868BA
:104730000430FEF7D7FA29681348BDE87040043109
:10474000FEF7AABA1E6828680430FEF7CBFA2B6879
:10475000A4195C6007D30D4B18682968BDE8704048
:104760000431FEF7A7BA0A4B186829680431FEF72E
:10477000A1FA084B1A68944238BF1C6070BD00BF94
:10478000B8D10020B4D00020BCD00020FCD0002044
:1047900000D1002098D0002038B5C368DC6804F14F
:1047A00018052846FEF79EFA1A4B1B68002B2CD1E1
:1047B000251D2846FEF796FA174AE36A116817483E
:1047C0008B4288BF136003EB8303294600EB830011
:1047D000FEF762FA124BE26A1B68DB6A9A4282BFFA
:1047E000104B01201860104B1A68126898BF002007
:1047F00022B90E4B4FF0FF321A6038BD1A680B4BCE
:10480000D268D26852681A6038BD09482946FEF756
:1048100043FADFE790D00020B0D000202CD1002058
:10482000B8D10020A4D0002000D1002098D00020D2
:10483000E8D00020034A044B12681B68C0E900233B
:10484000704700BFA0D00020B4D00020F8B50D46BE
:104850000446FDF7DBFF2B68124A581C116819D07B
:10486000DFF844C0D4E90060DCF80070BE4206D036
:10487000884204D80124FDF7D3FF2046F8BD0F1A63
:10488000BB420CD95B1ADCF80010126803442B60A1
